:020000040800F2
:10000000C805002031280008F1260008F326000862
:1000100000000000000000000000000000000000E0
:10002000000000000000000000000000F7260008AB
:100030000000000000000000F9260008FB26000870
:10004000FB090008371500086B150008EF260008AB
:10005000DF270008EB270008592800086D28000852
:1000600000000000032700086F280008712800081E
:100070000D27000873280008752800087728000855
:100080007928000800000000000000007B2800081C
:10009000000000007D2800087F2800088128000853
:1000A00000000000832800080000000085280008E8
:1000B000F8B584B00400002C01D101204AE2207878
:1000C000C00766D50C20B4490A680240042A09D04A
:1000D0000A68104008280ED18020400209680140BB
:1000E000814208D1AD480068800352D5606800287D
:1000F0004FD101202EE26068012806D1A74801688F
:10010000802252020A43026024E06068002809D17C
:10011000A2480168A24A0A4002600168A14A0A4056
:10012000026017E0606805280BD19C4801688022B6
:10013000D2020A4302600168802252020A4302602E
:1001400008E096480168964A0A4002600168954AAC
:100150000A400260606800280DD000F007FB05002F
:100160008E480068800314D400F000FB401B652813
:10017000F6D30320EEE100F0F9FA050087480068A5
:10018000800306D500F0F2FA401B6528F6D3032061
:10019000E0E102262068304000284FD00C207E4944
:1001A0000A680240002A06D00A681040082814D1C4
:1001B0000868C00311D4794801683140002904D08F
:1001C000E168012901D00120C4E10168F8229143CE
:1001D0002269D2000A43026030E0E06800281AD0A9
:1001E0006E4F386801210143396000F0BFFA050005
:1001F00038683040002806D100F0B8FA401B0328C8
:10020000F6D30320A6E13868F82188432169C900A4
:100210000143396012E0614F38680121884338603A
:1002200000F0A4FA050038683040002806D000F03D
:100230009DFA401B0328F6D303208BE120780007AA
:1002400028D5E069002812D0C34F38680121014346
:10025000396000F08BFA050038683040002819D169
:1002600000F084FA401B0328F6D3032072E1BA4F52
:10027000386801218843386000F078FA0500386852
:100280003040002806D000F071FA401B0328F6D356
:1002900003205FE1042720683840002800D18CE06B
:1002A00000206946087080204005AC49096801407B
:1002B00000290AD1A9490A6802430A60096808406E
:1002C00003900398012069460870A5480068C0059E
:1002D00014D4A3480068802149000143A04801606C
:1002E00000F044FA05009E480068C00506D400F0FE
:1002F0003DFA401B6528F6D303202BE1A0680128B6
:1003000005D19848016801220A43026021E0A068F3
:10031000002809D1934801680122914301600168D6
:1003200004229143016014E0A068052808D18D489B
:10033000016839430160016801220A43026008E054
:1003400088480168012291430160016804229143B9
:100350000160A06800280FD000F008FA050081486D
:100360000068304000281FD100F000FA401B7E4991
:100370008842F4D30320EDE000F0F8F90500794855
:100380000068304000280FD000F0F0F9401B76499B
:100390008842F4D30320DDE0041002400010024044
:1003A000FFFFFEFFFFFFFBFF68460078012804D136
:1003B0006A4801686D4A0A4002602078C00650D53C
:1003C0006069012822D1B44800680743B248076039
:1003D000B148006801210143AF48016000F0C6F94F
:1003E0000500AD4800683040002806D100F0BEF995
:1003F000401B0328F5D30320ACE0A7480168F8228E
:100400009143A269D2000A4302602AE00421C94351
:10041000606988420BD1A048026811400160016800
:10042000F8229143A269D2000A43026019E09A4877
:10043000006807439848076097480068012188438F
:100440009549086000F092F9050093480068304033
:10045000002806D000F08AF9401B0328F5D30320BA
:1004600078E0206A002874D08C4800680C21014094
:1004700008294DD0206A022838D1894F3868894927
:100480000140396000F072F900908026B6043868A7
:100490003040002807D000F069F90099401A03287D
:1004A000F3D3032056E0A54801680F229143E26A86
:1004B0000A430260794801687B4A0A40A16A1143F5
:1004C000626A0A4302603868802149040143396046
:1004D00000F04CF9050038683040002839D100F0B0
:1004E00045F9401B0328F6D3032033E06C4E3068F7
:1004F0006C490140316000F039F905003068800135
:1005000027D500F033F9401B0328F7D3032021E05F
:10051000206A012801D101201CE060480068019098
:100520008648006802900198802149020840616A6B
:1005300088420CD102980007000FE16A884206D178
:100540000198F02189030140A06A814201D0012075
:1005500000E0002005B0F0BD241002401C10024055
:10056000007000402010024089130000FFFFFFEFE1
:10057000F3B581B00400002C01D101208BE00125EE
:100580006F4E30682840029988420CD230680121B1
:1005900088430299014331603068284002998842BB
:1005A00001D0012077E002202168014000290FD00E
:1005B0002178490705D539490A68E023DB00134350
:1005C0000B6036490A68F0239A43A36813430B6013
:1005D00021682940002932D06168012905D13048BD
:1005E0000068800311D4012055E06168022905D11B
:1005F0002B480068800108D401204CE02849096894
:100600000840002801D1012045E0244F386803212B
:10061000884361680143396000F0A8F800903868A9
:100620000C21014060688000814208D000F09EF8F3
:100630000099401A43498842F1D303202BE00298E5
:100640003168294088420CD23068012188430299E0
:1006500001433160306805400298854201D0012095
:1006600019E02078400706D50C480168364A0A4050
:10067000E1681143016000F019F83449074A126833
:1006800012091207120F895CC84031490860002026
:1006900000F072F80020FEBD341002400410024049
:1006A00000100240FFFFFFFEFFFFC2FFF0B589B060
:1006B00005A82849102200F087F801A82649102231
:1006C00000F082F800242000009425002600234931
:1006D0000F680C213940042902D0082902D01BE000
:1006E0001F481AE00F2005A9BA0C0240895C0E00D1
:1006F00001A9124A12681040085C0090F80306D560
:100700001748009900F093F87043050002E015487F
:1007100070430500280000E0114809B0F0BD0C4806
:100720000068704780B5FFF7FAFF0F490B4A12685F
:10073000120A5207520F895CC84002BD2C100240B9
:100740000020024089130000FFF8FFFF2028000866
:1007500004000020002800081028000804100240AF
:1007600000127A0000093D005C280008014800687A
:10077000704700BFBC01002010B50400FA208000C3
:100780000E49097800F053F801000D48006800F0A8
:100790004EF800F01FF9002801D001200CE0042CD5
:1007A00009D2002221000020C04300F002F90548D0
:1007B0000460002000E0012010BD00BF0800002000
:1007C000040000200000002070B4103A03D378C960
:1007D000103A78C0FBD2530701D318C918C001D50D
:1007E00008C908C0D20704D30B880380891C801C69
:1007F000002A01D50B78037070BC7047F4460028BE
:1008000004D4494200F013F84042604740420029B6
:1008100005D45FD000F00BF840424942604749429E
:1008200000F005F84942604703460B43E6D4002236
:10083000030A8B420BD203098B4219D243088B4225
:100840002ED2411A00D20146524110467047FF2273
:1008500009023FD012068B4205D3121209028B42C5
:1008600001D31212090203098B4219D300E0090ACD
:10087000C3098B4201D3CB01C01A524183098B4279
:1008800001D38B01C01A524143098B4201D34B0162
:10089000C01A524103098B4201D30B01C01A5241C5
:1008A000C3088B4201D3CB00C01A524183088B424C
:1008B00001D38B00C01A524143088B4201D34B0035
:1008C000C01A5241884200D3401A5241CFD2014649
:1008D0001046704708B500F08FF808BD00B501005C
:1008E00049B2002905D40121C206D20E91403C4AEA
:1008F000116000BDF0B5020052B2002A1CD40322E0
:10090000384B040064B2A40804256C431C59FF252D
:100910001600064008277E43B540AC438D01EDB27A
:1009200002400826724395402543020052B29208C5
:10093000042462439D5022E00F242B4A0323050028
:100940006DB22540083DAD0804267543060076B219
:100950003440083CA408042674431659FF27BC46BB
:100960001C00044008277C436746A740BE438C0117
:10097000E4B2034008277B439C4034435451F0BD0C
:1009800010B50400601E80214904884201D3012073
:100990000EE0601E1549086003210020C043FFF7E8
:1009A000A9FF0020124908600720124908600020B2
:1009B00010BD70B505000C0016002100280040B2E3
:1009C000FFF798FF70BD10B50400200040B2FFF79C
:1009D00085FF10BD10B504002000FFF7D1FF10BD4A
:1009E00000E100E000E400E01CED00E014E000E0C5
:1009F00018E000E010E000E07047FEE7F8B5040002
:100A000000252F002E00002C01D10120D4E0A06B86
:100A1000002806D1E563280034216054200000F04E
:100A200069FB1020A16B0140002900D0BDE0390016
:100A3000C9B2002900D0B8E00422216889681140B9
:100A4000002900D0B1E0A36B5C49194002230B439D
:100A5000A363216889688907890F01290AD10121C7
:100A600023681B680B40002B03D12368DB681B0441
:100A700000D500E0290000290FD12168C96818239A
:100A80009943A3680B432168CB60216809698B00F7
:100A90009B0861681943236819612168CB6848493C
:100AA00019402368D960A16A012902D08021490137
:100AB00000E029002369022B00D02A00B446237EDF
:100AC0009E03637EDB033343A67E76031E433143DE
:100AD000E3680B431A432421615C4E0016436146D0
:100AE0000E43E17E01290FD1A17E002904D13100FE
:100AF000802676020E4307E0A16B20220A43A26300
:100B0000E16B01220A43E263E169FF22C2329142B2
:100B100004D03200E169266A0E4316432168C96891
:100B200031432268D160E16A80225205914214D09B
:100B3000E16A012911D0E16A02290ED0E16A032994
:100B40000BD0E16A042908D0E16A052905D0E16AE1
:100B5000062902D0E16A07290ED1216849690722D6
:100B6000914322685161216849692C22A25C520795
:100B7000520F0A4321684A612168C968114A0A4034
:100B8000B24207D1E563A06B0221884301210143F2
:100B9000A1630FE0A16B022291430843A0630120EF
:100BA000E16B0143E163070004E0A16B0843A0632C
:100BB000012007003800C0B2F2BD0000FFFEFFFFB9
:100BC0001902FEFFE7FF3F83F7B504000025280068
:100BD000694608700427206880683840002844D19E
:100BE0003420205C012801D1022043E0012630009E
:100BF00034216054607E012804D0200000F086F982
:100C00006946087068460078002831D1A06B5A49BF
:100C10000140802040000843A063E5633420255450
:100C20005648216B88625648216BC8625548216B33
:100C300008631C2021680860206840681021014377
:100C4000206841602068C06806432068C660029B37
:100C5000019A206801004031206B00F0D1FA206831
:100C6000806807432068876002E0022069460870B8
:100C700068460078FEBD38B5040004202168096884
:100C80000140002904D021684968014000290AD1A7
:100C90000821226812680A40002A3AD02268526865
:100CA0001140002935D0A16BC90604D4A16B802264
:100CB00092000A43A2632168C968C02212010A4057
:100CC000002A20D1A17E00291DD1216809680907C9
:100CD00019D521688968084000280CD1206840682F
:100CE0000C21884321684860A06B8749014001209E
:100CF0000843A06307E0A06B20210143A163E06BE0
:100D000001210143E163200000F06CFB0C2021680D
:100D10000860802520680068284000280ED02068E0
:100D200040682840002809D0A06B80214902014377
:100D3000A163200000F0FCFB2068056010252068FE
:100D400000682840002816D0206840682840002805
:100D500011D0A06A012803D02068C068C00708D558
:100D6000E06B02210143E16320680560200000F090
:100D7000E0FB2068056031BDFEF1FFFFC50F0008F4
:100D80004910000857100008F8B504000D000027AE
:100D90003E00009780214905E06A884213D0E06A4E
:100DA000012810D0E06A02280DD0E06A03280AD09A
:100DB000E06A042807D0E06A052804D0E06A062823
:100DC00001D0E06A07283420205C012801D10220EC
:100DD00098E0012210003423E05420688068400726
:100DE00000D586E06868734B98425FD02068806ABF
:100DF0002B689A40024320688262E06A884228D0C9
:100E0000E06A012825D0E06A022822D0E06A03289F
:100E10001FD0E06A04281CD0E06A052819D0E06AD7
:100E2000062816D0E06A072813D00720A968226890
:100E30005269024091420CD02168496907229143CE
:100E40002268516121684969AA68104008432168F5
:100E500048612868102805D02868112802D0286821
:100E600012284BD12868102802D18020000407E006
:100E70002868112802D18020C00301E080204004AE
:100E80004D490A68104308602868102836D14B483D
:100E900000684B49FFF7CBFC0A21484300900098BB
:100EA00000282BD00098401E0090F8E72068806A48
:100EB00029688A409043216888622868102805D0F4
:100EC0002868112802D02868122817D1286810280D
:100ED00002D18021090407E02868112802D180216D
:100EE000C90301E080214904334802688A43026053
:100EF00004E0A06B20210143A16316003420275495
:100F00003000C0B2F2BD0000FFFEFFFF7CB5040060
:100F1000002006000090216889688907890F01294F
:100F20000BD10121226812680A40002A03D12268ED
:100F3000D268120401D50800FFE7002838D12068E4
:100F400080683F490140002909D0A06B102101436E
:100F5000A163E06B01210143E163012029E0012548
:100F60002068806828432168886014480068144914
:100F7000FFF75DFC00900098002803D00098401E09
:100F80000090F8E7FFF7F2FB0600206800682840B1
:100F900000280DD1FFF7EAFB801B0328F5D3A06BD7
:100FA00010210143A163E06B0543E563012000E0EC
:100FB000002076BD01100000082701400400002039
:100FC00040420F0038B50400656AA86B502101400B
:100FD00000292FD1A86B802189000143A9632868CB
:100FE000C068C0210901014000291FD1A87E002846
:100FF0001CD128680068000718D528688068400759
:101000000CD4286840680C21884329684860A86B84
:101010000C49014001200843A86307E0A86B202188
:101020000143A963E86B01210143E963280000F053
:10103000D9F903E02000296B096B884731BD000016
:1010400017000080FFFEFFFF38B50400656A280026
:1010500000F070FA31BD38B50400656AA86B402114
:101060000143A963E86B04210143E963280000F010
:1010700060FA31BD3EB568460C2100F05DFA444C83
:101080004448206000206060A060E0600125256188
:101090000821616101002176010061760100A176DD
:1010A0000100E176E0618021C9002162290024224B
:1010B000A154A0622000FFF7A1FC002801D000F09D
:1010C00036FA022000908020400101900295694686
:1010D0002000FFF759FE002801D000F028FA032075
:1010E000009069462000FFF74FFE002801D000F075
:1010F0001EFA37BD70B586B0040001A8142100F0B7
:101100001BFA2068234988423FD180208000224971
:101110000A6802430A60096808400090009880202D
:1011200080021E490A6802430A600968084000906C
:1011300000980C200190032002900025039501A93E
:101140009020C00500F012FA154E16483060756008
:10115000B5608020F0608020400030618020C000B9
:1011600070612020B061F561300000F01DF80028AA
:1011700001D000F0DCF926637462002200210C200B
:10118000FFF717FC0C20FFF71EFC06B070BD000037
:1011900034010020002401401810024014100240C5
:1011A000F000002008000240F8B5040000252F00E0
:1011B000002C01D1012020E0022021216054206870
:1011C00001680E4808406168A2680A43E16811435B
:1011D00022690A4361691143A2690A43E669164319
:1011E000064320680660200000F0D0F8A5630120C7
:1011F00021216054202025540020F2BD0FC0FFFFA4
:10120000F7B504001F00002006002021615C0129C1
:1012100001D1022039E0012529002022A1542121F9
:10122000615C01292BD102212122A154A0632068F5
:10123000006801218843216808603B00029A0199F7
:10124000200000F08EF8E06A002806D020680068D0
:101250000E210143206801600BE0206800680A212C
:1012600001432068016020680068042188432168E8
:1012700008602068006805432068056003E02021BD
:101280006054022006003000C0B2FEBD70B50400FC
:10129000E06B0568206806680420216C02008A4023
:1012A0002A40002A16D0064214D02168096889060F
:1012B00005D4216809680422914322681160216CD9
:1012C0008840E16B4860E06A002849D02000E16A6C
:1012D000884745E00220216C02008A402A40002A0B
:1012E0001CD006421AD021680968890608D42168F2
:1012F00009680A2291432268116001212122A15428
:10130000216C8840E16B4860002020216054A06A75
:10131000002825D02000A16A884721E00820216C00
:1013200002008A402A40002A1AD03040002817D0F4
:10133000206800680E218843216808600120216C24
:1013400002008A40E16B4A60A063212160540020C2
:1013500020216054206B002802D02000216B884798
:1013600070BD30B50124056CAC40C56B6C60046881
:1013700063604468102C04D10468A2600468E160D2
:1013800003E00468A1600468E26030BD10B50400A9
:101390002068054940181421FFF749FA80002064AD
:1013A0000248E06310BD0000F8FFFDBF00000240EE
:1013B00080B500F0E1F900F083F800F0EDF900F0FD
:1013C00003FAFFF757FE00F015FA00F06BFA00F091
:1013D000EDFA02222D492E48FFF7F6FB2D4800F0CA
:1013E00051FBFEE770B504002848058846882800B0
:1013F00080B22949884216DB2848290089B2401A60
:10140000002801D5002108002549884201DB254933
:1014100008007F2148432349FFF706FA01007F397E
:10142000214A116018E0280080B220494018DB21D1
:101430004900884202DBFF21B6310800002801D5AF
:10144000002108007F214843FF21B631FFF7ECF966
:101450007F21091A144A1160310089B2144A89188F
:10146000002901D5002001001248814201DB124809
:101470000100FF20414308000F49FFF7D5F9FF2184
:101480000200891A0D4A117070BD0000B4010020DD
:101490003401002074010020BE050000A70F0000E9
:1014A000EB090000EA090000B8010020F8FBFFFF8B
:1014B00003FCFFFF970B0000960B0000C00100200B
:1014C00038B594B008A8302100F036F868461021ED
:1014D00000F032F804A8102100F02EF81220089035
:1014E00001240B940D9410200C900E900025109563
:1014F00008A8FEF7DDFD002801D000F018F807204D
:10150000009001950295039500216846FFF730F899
:10151000002801D000F00BF80494069504A800F010
:10152000F7FC002801D000F002F815B030BD70477C
:10153000704770477047FEE70022FFE7130010393D
:1015400006D330B41400150010393CC0FCD230BCB6
:10155000490700D30CC000D504C0890002D3028023
:10156000801C002900D502707047FEE7FCB5020020
:1015700000240868E040002800D1ECE0012508685C
:101580002E00A640064001960198002800D1E0E018
:101590004868022802D0486812281FD1E0080426B3
:1015A00070431018076A072000970F26B4462700DB
:1015B0000740042677436646BE40009FB743BC46BB
:1015C0000E692700384004277843864067463E432B
:1015D0003300E008042670431018036217680326DE
:1015E000BC462700022047433000B8406746874387
:1015F00000974F683740BC46200002277843674673
:1016000087400098074317604868012808D0486859
:10161000022805D04868112802D04868122820D135
:1016200093689C4623000220434330009840634661
:1016300083430093C86884462300022043436046E6
:101640009840009B184300900098906053682800D1
:10165000A0408343486800092840A0401843070081
:101660005760D3689C4623000220434330009840D3
:101670006346834300938B689C46200002235843B3
:101680006346834000980343D3604868C00060D538
:10169000314807682F430760006828400090009891
:1016A0002E488446A708042047436046C05900904E
:1016B0000F27BC4627003000384004277843674690
:1016C00087400098B8439027FF05BA4201D1002512
:1016D00008E0234B9A4205D0224B9A4201D10225C1
:1016E00000E0052523001E4004235E43B54005436A
:1016F0001A48A30804267343C5501B4B1868019E63
:10170000B0434E68F60302D50500019828431860DF
:10171000164D2B68019EB3434E68B60302D51800E0
:10172000019B03432B60124D2868019EB0434E6815
:10173000F60202D503000198184328600D4D2B686E
:10174000019EB3434E68B60202D51800019B0343C5
:101750002B60641C0DE7F3BD181002400800014027
:10176000000400480008004800040140040401404F
:10177000080401400C04014080B5064801681022AD
:101780000A4302600020FEF7F7FF00F059FC00203A
:1017900002BD00000020024081B080208002094983
:1017A0000A6802430A600A6810400090009880208E
:1017B000C0020A6802430A60096808400090009865
:1017C00001B070471410024080B5012008490A6832
:1017D00002430A6009680840009000980022002136
:1017E0000920FFF7E6F80920FFF7EDF801BD00BF7B
:1017F0001410024080B52748274901608221490022
:10180000416000218160E022D200C260016141613B
:101810008022920082610822C2610162416281627B
:101820000723C3620163426300F024FC002801D057
:10183000FFF77DFE01BD10B586B0040001A814219C
:10184000FFF77AFE20681449884221D180204001A8
:1018500012490A6802430A6009680840009000982B
:10186000802080020E490A6802430A600968084025
:1018700000900098E0200190022002900020039048
:1018800003210491059001A99020C005FFF76EFE89
:1018900006B010BD8C00002000300140181002403E
:1018A0001410024030B595B011A81021FFF744FE86
:1018B000384803C86A4603C2083A0AA81C21FFF741
:1018C0003BFE02A82021FFF737FE334D3348286046
:1018D000334868600024AC603248E8602C616C6179
:1018E0008020A861280000F0B1F8002801D0FFF79F
:1018F0001EFE80204001119011A9280000F029F956
:10190000002801D0FFF713FE280000F0D1F80028CE
:1019100001D0FFF70CFE20200090019469462800BA
:1019200000F014FC002801D0FFF701FE0A940B948C
:101930000C940D940E940F94109400220AA9280080
:1019400000F0D2F8002801D0FFF7F1FD02940394D3
:10195000049405940694802080010790099402A9BC
:10196000280000F026FC002801D0FFF7E0FD15B0AC
:1019700030BD80B50168094A914209D18021090131
:10198000094A13680B4313601268114000910099D3
:1019900001BD00006428000874010020002C0140F3
:1019A0001F1C0000E70300001810024080B5224809
:1019B00022490160E1214902416000218160C1604A
:1019C00001610C2242618161C1610162416200F0EA
:1019D0002FFC002801D0FFF7AAFD01BD10B586B08D
:1019E000040001A81421FFF7A7FD206813498842CD
:1019F00020D18020C00112490A6802430A600968A8
:101A00000840009000988020C0020E490A680243F6
:101A10000A600968084000900098C02001900220E8
:101A200002900020039003210491059001A906482B
:101A3000FFF79CFD06B010BD0C00002000380140EF
:101A400018100240141002400004004810B50400B1
:101A5000002C01D1012014E03D20205C002805D19C
:101A600000203C2160542000FFF783FF02203D212D
:101A70006054211D206800F0E7F801203D216054EA
:101A8000002010BD00B5010002203D2288540868E6
:101A900080684207520F062A05D0086800680123B3
:101AA00003430868036001203D23C854002000BDA3
:101AB00010B50400002C01D1012014E03D20205C71
:101AC000002805D100203C216054200000F0F0FDEA
:101AD00002203D216054211D206800F0B5F801204E
:101AE0003D216054002010BDF8B504000E00170021
:101AF0003C20205C012801D1022029E001253C2066
:101B0000255402203D2160543800002806D00428C6
:101B100009D008280CD00C280FD013E03100206821
:101B200000F0D0F80EE03100206800F003F909E081
:101B30003100206800F035F904E03100206800F041
:101B400065F9FFE73D20255400203C21605400202A
:101B5000F2BDF8B504000D003C20205C012801D145
:101B600002206DE001263C20265402203D216054D5
:101B70002068806877218843324F0740206887605B
:101B80002868002851D010284FD020284DD0302868
:101B90004BD040283FD0502829D0602831D0702821
:101BA00009D080214901884204D0802189018842DE
:101BB0000FD03FE03EE0EB686A68A968206800F05B
:101BC00091F920688068772101430F0020688760C1
:101BD00030E0EB686A68A968206800F083F9206843
:101BE00080688021C90101432068816022E0EA68A1
:101BF0006968206800F042F95021206800F06AF915
:101C000018E0EA686968206800F04AF960212068F5
:101C100000F060F90EE0EA686968206800F02EF9CB
:101C20004021206800F056F904E02968206800F09F
:101C300051F9FFE73D20265400203C21605400204C
:101C4000F2BD0000FF00FFFF10B50368834A904219
:101C500006D08024E405A04202D0814CA04204D1E9
:101C60007024A3431C004B68234390420FD0802470
:101C7000E405A0420BD07A4CA04208D0794CA04297
:101C800005D0794CA04202D0784CA04203D1784CC8
:101C90001C40CB6823438024A3434C691C4304604D
:101CA0008B68C3620B688362904205D06E4A904293
:101CB00002D06E4A904201D10A6902630122426158
:101CC00010BD000070B5026A01239A430262056AE2
:101CD0004368846970229443032294430A68224330
:101CE0000224A5438C682C435C4DA84205D05E4E6F
:101CF000B04202D05D4EB04206D10826B443260061
:101D0000CC6834430426B443A84205D0564DA842BB
:101D100002D0564DA84207D1564D1D406B4B2B406B
:101D20004D691D438B692B43436082614D68456358
:101D3000046270BD70B5026A10239A430262036A9E
:101D4000426884694C4D2540494E2E400C6824025F
:101D500034432025AB438D682D011D433F4B9842F2
:101D600007D18026B5432E00CD682D01354340268E
:101D7000B543984205D03C4B984202D03B4B984229
:101D800009D1514B1340524A1A404B699B001343EF
:101D90008A6992001A43426084614B6883630562DA
:101DA00070BDF0B5026A334B13400362046A4268A7
:101DB000C56970239D4303239D430B682B43434D0B
:101DC00025408C6824022C43244DA84206D1404E65
:101DD0002640CC68270237433B4C3C40A84205D004
:101DE000214DA84202D0214DA84209D1434D1540B2
:101DF000434A2A404D692D0115438A6912012A433D
:101E00004260C3614D68C5630462F0BD70B5026A8B
:101E10003A4B13400362036A4268C469164D254079
:101E2000134E2E400C6824023443354D1D408B6800
:101E30001B032B43094DA84205D00B4DA84202D0ED
:101E40000A4DA84204D12F4D15404A6992012A43F8
:101E50004260C4614D680564036270BD002C01409E
:101E600000040040002000400044014000480140C0
:101E7000FFFCFFFFFFFEFFFFFF8FFFFF30B4036A91
:101E8000046A0125AC4304628469F025AC43150162
:101E900025430A24A3430B438561036230BC70478A
:101EA00030B4036A1024A34303628469036A164DA5
:101EB000254014032C43A025AB430D011D43846131
:101EC000056230BC70470000FFFBFFFFFFFDFFFF16
:101ED000FFF7FFFF826870239A4307230B431343E6
:101EE0008360704770B48468084D254016000E4327
:101EF0001C0234432C43846070BC7047FFEFFFFF2B
:101F0000FFDFFFFFFFBFFFFFFF0FFFFFFF00FFFF30
:101F1000F8B584B00700002002900190802464028C
:101F200039682140002964D0694608708020400546
:101F30003B4D29680140002909D1296801432960E6
:101F40002968084003900398012069460870354EBF
:101F50003068C00512D430688021490001433160E7
:101F6000FEF704FC02903068C00507D4FEF7FEFBC4
:101F70000299401A6528F6D303204FE0C020800064
:101F8000294E3168014001910199002923D001991E
:101F90007A68104081421ED0306824490140019186
:101FA0003068044334603068214901403160019851
:101FB00030600198C0070ED5FEF7D8FB029030685C
:101FC000800708D4FEF7D2FB0299401A19498842CB
:101FD000F5D3032022E030681449014078680843B3
:101FE000306068460078012803D128681249014012
:101FF00029603878C00706D510480168032291434C
:10200000BA680A4302603878800606D50B48016832
:1020100010229143FA680A430260002005B0F0BD27
:102020001C1002400070004020100240FFFCFFFF27
:10203000FFFFFEFF89130000FFFFFFEF301002409B
:1020400081B0012009490A6802430A600968084012
:10205000009000988020400505490A6802430A6004
:10206000096808400090009801B0704718100240BD
:102070001C10024070B50400002C01D1012060E06A
:10208000606A00280025A5625D20205C002805D13B
:1020900028005C2160542000FFF7CDFB02200100E6
:1020A0005D22A15421680968402291432268116091
:1020B0002449E2688A4201D32A0001E080225201C9
:1020C000E368F0263601B34205D0E368E026F60067
:1020D000B34200D0A562236B002B06D1E3688B428C
:1020E00001D3206301E0012020636068A1680143FF
:1020F0002069084361690143A06980239B0018405F
:102100000843E1690143206A0843A16A014320684A
:102110000160A069000C04210840616A0143606B02
:102120000843E16801431143206841602068C069A9
:10213000054901402068C161256601205D21605488
:10214000002070BD01070000FFF7FFFF70B502001F
:102150003C20105C012801D1022029E001203C2311
:10216000D05402233D24135513685D6813689B689F
:102170007024A5430C682C4315686C601568254EC7
:10218000B54208D015688026F605B54203D015681B
:10219000214EB54206D18025AB431D004B682B4331
:1021A0001568AB603D25505500203C25505500205A
:1021B00070BD30B50200002003003C24145D012CEA
:1021C00001D1022023E001243C255455FF24A343E0
:1021D000CC681C43114D25408B682B43104C1C4090
:1021E0004B6823430F4C1C400B6823430E4C1C4090
:1021F0000B692343064C1C404B6923430B4C1C408A
:10220000CB692343146863643C241055002030BD1F
:10221000FFDFFFFF002C014000040040FFFCFFFF38
:10222000FFFBFFFFFFF7FFFFFFEFFFFFFFBFFFFF1A
:1022300010B50400002C01D1012035E0A069002870
:10224000FFD1606F002805D100207021605420006C
:10225000FFF7C4FB242060672068006801218843E1
:1022600021680860200000F023F8012801D1012036
:102270001AE0606A002802D0200000F001F920680E
:1022800040680A49014020684160206880682A212E
:102290008843216888602068006801210143206824
:1022A0000160200000F062F910BD0000FFB7FFFFE1
:1022B000FEB5040000263700300069460870A068AB
:1022C0002169014362690A43E06910432168096892
:1022D000A34A0A40024321680A6021684968A14A6A
:1022E0000A40E168114322685160A169226A0A43E9
:1022F0000292216889689C4A0A4002991143226827
:102300009160B24909688907890F002905D002291F
:1023100009D006D3032902D007E0350006E00225E4
:1023200004E0042502E0082500E0102580200002DA
:10233000E169814258D12800C0B2002806D00228A5
:1023400013D004281BD0082828D032E0FEF7EAF981
:10235000019001980221484361684908401861686A
:10236000FEF765FA80B2070026E0606840089849E9
:1023700040186168FEF75BFA80B207001CE0FEF7C8
:1023800095F9019001980221484361684908401875
:102390006168FEF74CFA80B207000DE06068400803
:1023A0008021490240186168FEF741FA80B20700B7
:1023B00002E0012069460870102F11D380204002EE
:1023C00087420DD23900AD48084079084907490FC6
:1023D000014368464180684640882168C8604AE0F9
:1023E00001206946087046E02900C9B2002906D0DC
:1023F000022911D0042919D0082924D02CE0FEF795
:1024000091F9019001986168490840186168FEF7E8
:102410000EFA80B2070022E0606840089849401830
:102420006168FEF704FA80B2070018E0FEF73EF993
:10243000019001986168490840186168FEF7F7F952
:1024400080B207000BE06168490808186168FEF770
:10245000EEF980B2070002E0012069460870102FF3
:1024600006D380204002874202D22068C76002E083
:102470000120694608702666666668460078FEBDDB
:1024800000B52421415CC90707D5016849687D4A28
:102490000A40816A1143026851602421415C890726
:1024A00007D501684968784A0A40C16A1143026841
:1024B00051602421415C490707D501684968734A86
:1024C0000A40016B1143026851602421415C0907F5
:1024D00007D5016849686E4A0A40416B114302689A
:1024E00051602421415CC90607D501688968694AA1
:1024F0000A40816B1143026891602421415C890686
:1025000007D501688968644A0A40C16B11430268B3
:1025100091602421415C490614D5016849685F4AED
:102520000A40016C114302685160016C8022520321
:10253000914207D101684968594A0A40416C1143E8
:10254000026851602421415C090607D50168496889
:10255000544A0A40816C11430268516000BD00007A
:10256000F369FFFFFFCFFFFFFFF4FFFF7CB505001E
:102570000024EC67FEF7FAF80600286800680007F8
:102580000CD549480090330000228021890328009F
:1025900000F020F8002801D0032016E02868006829
:1025A00040070CD540480090330000228021C90329
:1025B000280000F00FF8002801D0032005E02020BB
:1025C0006867A86770202C54002076BD3010024048
:1025D0000024F400F4B504000D001F00069E2068DE
:1025E000C0692840A84201D1012000E000206946CE
:1025F0000978884240D10020C0438642EFD0FEF7E0
:10260000B5F8C01B864201D3002E13D120680068A4
:1026100026490140206801602068806801218843C4
:102620002168886020206067A067002070216054C6
:10263000032022E0206800684007D0D580200001F8
:102640002168C96901400029C9D021680862206851
:1026500000681649014020680160206880680121F7
:1026600088432168886020206067A067E0670020B9
:1026700070216054032000E00020F2BDF0FF000054
:1026800000127A00FFFFFDFFFFFFFEFFFFFFFBFFD1
:10269000FF7FFFFFFFEFFFFFFFDFFFFFFFFFEFFF0A
:1026A000FFFF9FFFFFFFF7FFFFFFFF015FFEFFFF41
:1026B000704770B40123002413E00168001D194223
:1026C00002D04D466D1E49190C60091D121F042AC7
:1026D000FAD20D00960701D50C80AD1C1A4000D02F
:1026E0002C700268001D002AE7D170BC7047FEE71D
:1026F000704700B5FEE77047704780B500F010F8EE
:1027000001BD80B50448FEF7C1FD01BD80B5034899
:10271000FEF7B1FA01BD0000F000002034010020F6
:1027200003480168034A127889180160704700BFA6
:10273000BC0100200800002030B401220168001D07
:1027400000290FD00368C31844680830144202D02F
:102750004D466D1E64191D6825601B1D241D091F33
:10276000ECD0F8E730BC704710B507497944183110
:10277000064C7C44163404E0081D0A688918884712
:102780000100A142F8D110BD08000000280000009F
:1027900023FFFFFFB80100000C0000200000000034
:1027A00099FFFFFF0C000000A400000000000020C3
:1027B0000000000000F00DF8002801D0FFF7D4FF62
:1027C00000BF00BF002000BF00BFFEF7F1FD00F01A
:1027D00002F80120704780B500F002F801BDFEE765
:1027E0000746384600F002F8FBE7FEE780B500BF79
:1027F00000BF024A11001820ABBEFBE72600020012
:1028000002030405060708090A0B0C0D0E0F101031
:102810000102030405060708090A0B0C0D0E0F1030
:102820000000000000000000010203040607080980
:1028300001488047014800478928000841280008CE
:1028400000BF00BF00BF00BFFFF7B4FF04000000DF
:1028500000127A0001000000FEE700000000000006
:10286000010203040000000000000000FEE7FEE794
:10287000FEE7FEE7FEE7FEE7FEE7FEE7FEE7FEE730
:0A288000FEE7FEE7FEE700007047E8
:040000050800284186
:00000001FF
