:020000040800F2
:1000000060050020D13700081136000813360008BB
:1000100000000000000000000000000000000000E0
:10002000000000000000000000000000173600087B
:100030000000000000000000193600081B36000810
:10004000B70D0008073600080B3600080F36000809
:100050005737000823360008633700082D3600089C
:100060000000000037360008F9370008FB370008A9
:1000700041360008FD370008FF3700080138000846
:1000800003380008000000000000000005380008E8
:100090000000000007380008093800080B38000885
:1000A000000000000D380008000000000F380008B4
:1000B00070B50400002C01D1012060E0606A0028C6
:1000C0000025A5625D20205C002805D128005C2168
:1000D0006054200000F028FD022001005D22A154A0
:1000E000216809684022914322681160AC49E268A6
:1000F0008A4201D32A0001E080225201E368F026FF
:100100003601B34205D0E368E026F600B34200D0E2
:10011000A562236B002B06D1E3688B4201D32063D9
:1001200001E0012020636068A16801432069084361
:1001300061690143A06980239B0018400843E1697D
:100140000143206A0843A16A014320680160A06955
:10015000000C04210840616A0143606B0843E168B8
:1001600001431143206841602068C0698D49014006
:100170002068C161256601205D216054002070BDAA
:10018000FFB583B004000025280069460870E068C8
:100190008349884207D2E0688149884203D2684691
:1001A000808A0228FFD35C20205C012801D1022034
:1001B000F3E0012738005C21605400F0F9FC029064
:1001C0006846808A694648805D20205C012803D00B
:1001D000022069460870DAE00498002803D06846D7
:1001E000808A002803D1380069460870CFE00326D2
:1001F0005D20265425660498A0636846808AA087FF
:100200006846808AE08725642800442160522800DF
:10021000462160522565E564A06880210902884274
:1002200006D1206800688021C9010143206801606F
:100230004020216809680140002904D1216809682B
:10024000084321680860E0685549884234D36068F3
:10025000002803D068464088012809D1A06B008897
:100260002168C860A06B801CA063E08F401EE087FF
:10027000E08F002871D02068806880070AD5A06BC5
:1002800000882168C860A06B801CA063E08F401EBE
:10029000E087EDE700F08CFC0299401A069988424D
:1002A00004D306980021C943884202D10698002849
:1002B000DED1684606706AE06068002803D06846B0
:1002C0004088012817D1E08F02280AD3A06B00884C
:1002D0002168C860A06B801CA063E08F801EE0874F
:1002E00009E0A06B007821680873A06B401CA06334
:1002F000E08F401EE087E08F00282ED020688068C5
:10030000800718D5E08F02280AD3A06B00882168E7
:10031000C860A06B801CA063E08F801EE087EAE7C6
:10032000A06B007821680873A06B401CA063E08F6D
:10033000401EE087DFE700F03BFC0299401A069977
:10034000884204D306980021C943884202D1069806
:100350000028D0D16846067019E0029A069920005C
:1003600000F08BFB002801D020202066A068002828
:1003700007D101952068C0680190206880680190CD
:100380000198206E002802D03800694608705D2070
:1003900027545C2025546846007807B0F0BD000063
:1003A00001070000FFF7FFFFF7B582B004001F0050
:1003B0000025280069460871E0688149884207D213
:1003C000E0687F49884203D26846008A0228FFD34A
:1003D00060688221490088420ED1A06800280BD1B4
:1003E00004205D21605400976846038A039A0399AC
:1003F000200000F0C9F8C0E05C20205C012801D199
:100400000220BAE0012630005C21605400F0D0FBED
:1004100000905D20205C012803D00220694608710D
:10042000A5E00398002803D06846008A002803D17D
:100430003000694608719AE004205D216054256609
:10044000039820646846008A442160526846008A06
:1004500046216052A5632800A0872800E087E56454
:1004600025655748E168814206D321684968444AB6
:100470000A4021684A6006E02168496880225201EA
:100480000A4321684A60A16880221202914205D184
:10049000216809683B4A0A4021680A6040212268B5
:1004A00012680A40002A04D12268126811432268A7
:1004B0001160E168814225D24620205A002847D0A9
:1004C00020688068304000280CD02068007B216CB8
:1004D0000870206C401C20644620205A401E462193
:1004E0006052E9E700F064FB0099401AB84203D378
:1004F0000020C043874201D1002FDDD1032069468F
:10050000087134E04620205A002821D020688068F5
:10051000304000280CD02068C068216C0880206C16
:10052000801C20644620205A401E46216052E9E784
:1005300000F03EFB0099401AB84203D30020C043AC
:10054000874201D1002FDDD10320694608710EE0FA
:10055000009A3900200000F049FA002801D020203C
:100560002066206E002802D03000694608715D20A8
:1005700026545C2025546846007905B0F0BD000083
:10058000FFEFFFFFFFBFFFFFFFB585B004000E9F29
:10059000012601960025280069460870E068084990
:1005A000884207D2E0680649884203D26846008C38
:1005B0000228FFD35C20205C012803D1022066E1E1
:1005C0000107000030005C21605400F0F1FA029055
:1005D0005D20205C69464870606804906846008C25
:1005E000694648806846008C69468881684640783C
:1005F00001280FD0049882214900884206D1A068C2
:10060000002803D168464078042803D002206946B8
:10061000087036E10698002806D00798002803D015
:100620006846008C002803D130006946087028E134
:100630005D20205C042802D005205D2160542566E1
:10064000079820646846008C462160526846008CFA
:10065000442160520698A0636846008CE087684693
:10066000008CA087E56425658A48E168814203D251
:1006700069468989022906D321684968864A0A4061
:1006800021684A6006E021684968802252010A43D5
:1006900021684A604021226812680A40002A04D179
:1006A00022681268114322681160E168814251D3C7
:1006B0006068002803D068464088012809D1A06BF3
:1006C00000882168C860A06B801CA063E08F401E7A
:1006D000E087E08F002804D14620205A002800D16E
:1006E000C3E020688068800710D5E08F00280DD017
:1006F000019801280AD1A06B00882168C860A06B0E
:10070000801CA063E08F401EE08701952068806810
:100710003040002810D04620205A00280CD02068F5
:10072000C068216C0880206C801C20644620205A00
:10073000401E46216052019600F03AFA0299401A92
:10074000B842C6D30020C0438742C2D003206946C6
:10075000087096E06068002803D068464088012849
:1007600017D1E08F02280AD3A06B00882168C860E7
:10077000A06B801CA063E08F801EE08709E0A06B67
:10078000007821680873A06B401CA063E08F401EB6
:10079000E087E08F002803D14620205A002864D04B
:1007A0002068806880071ED5E08F00281BD0019844
:1007B000012818D1E08F02280AD3A06B0088216895
:1007C000C860A06B801CA063E08F801EE08709E0FA
:1007D000A06B007821680873A06B401CA063E08FB9
:1007E000401EE087019520688068304000282CD0AA
:1007F0004620205A002828D04620205A022817D305
:100800002068C068216C0880206C801C2064462011
:10081000205A801E462160524620205A022813D2B8
:1008200020684068802149010143206841600BE055
:100830002068007B216C0870206C401C20644620DE
:10084000205A401E46216052019600F0B1F90299EB
:10085000401AB84203D30020C043874201D1002F81
:1008600097D10320694608700BE0029A39002000F6
:1008700000F003F9002804D03000694608702020F9
:1008800020665D2026545C2025546846007809B017
:10089000F0BD000001070000FFEFFFFFF4B504000A
:1008A0000F001D00069E206880683840B84201D1C4
:1008B000012000E000206946097888423DD00020F0
:1008C000C0438542EFD000F073F9801BA84201D2EB
:1008D000002DE8D120684068E02188432168486005
:1008E00060688221490088420FD1A06880210902F6
:1008F000884204D0A0688021C900884205D12068C0
:100900000068402188432168086080208001A16A36
:1009100081420AD121680968334A0A4021680A6085
:100920002168096808432168086001205D2160543E
:1009300000205C216054032000E00020F2BDF2B5ED
:10094000040017001D00069E206880680099014081
:10095000B94246D00098C021C900884203D1002F77
:1009600001D12068007B0020C0438542ECD000F01C
:100970001FF9801BA84201D2002DE5D120684068F4
:10098000E0218843216848606068822149008842EC
:100990000FD1A06880210902884204D0A06880217C
:1009A000C900884205D12068006840218843216839
:1009B000086080208001A16A81420AD1216809680B
:1009C000094A0A4021680A602168096808432168C9
:1009D000086001205D21605400205C2160540320E8
:1009E00000E00020F2BD0000FFDFFFFFF8B50400CB
:1009F0000F00160082256D006068A8420FD1A06824
:100A000080210902884204D0A0688021C900884260
:100A100005D120680068402188432168086000965D
:100A20003B00002280212000FFF738FF002805D07E
:100A3000206E20210143216603201DE06068A8424A
:100A400019D1A06880210902884204D0A0688021C1
:100A5000C90088420FD100963B000022C021C90086
:100A60002000FFF76CFF002805D0206E20210143F5
:100A70002166032000E00020F2BD7CB504000E00DA
:100A80001500009533000022C02149012000FFF726
:100A900056FF002805D0206E202101432166032047
:100AA0001FE000953300002280212000FFF7F6FEB2
:100AB000002805D0206E202101432166032010E08C
:100AC000009533000022C021C9002000FFF737FF46
:100AD000002805D0206E202101432166032000E07C
:100AE000002076BD80B52E482E4901608221490044
:100AF000416000218160E022D200C2600161416159
:100B00008022920082611022C26101624162816290
:100B10000722C262016308214163FFF7C9FA002876
:100B200001D000F02EF901BD70B586B00600684610
:100B3000142100F027F930681A4988422DD180200D
:100B4000400119490A6802430A6009680840059093
:100B500005988020800215490A6802430A600968E6
:100B6000084005900598E0200090022001900024A4
:100B700002940320039004949025ED056946280013
:100B800000F01AF9102000900120019002900394C7
:100B900004946946280000F00FF906B070BD00000B
:100BA00014000020003001401810024014100240D0
:100BB00001480068704700BF540100204648017892
:100BC000491C0170704745480178491C0170704705
:100BD00038B500F005FA00F09DF800F011FA00F0C9
:100BE00093FA00F0A7FAFFF77DFF00F03DFB022229
:100BF0003B493C4800F0A2FC3B4800F011FF01F0EB
:100C000059FCFA256D00280001F022FD9024E4052E
:100C100000220121200000F0C5F9280001F018FD94
:100C200001220121200000F0BDF901F04AFAE8E7B5
:100C300070B504002A4805884688280080B22B49F0
:100C4000884216DB2A48290089B2401A002801D5BB
:100C5000002108002749884201DB274908007F213D
:100C60004843254901F020FD01007F39234A1160E6
:100C700018E0280080B222494018DB214900884250
:100C800002DBFF21B6310800002801D50021080051
:100C90007F214843FF21B63101F006FD7F21091A6B
:100CA000164A1160310089B2164A8918002901D507
:100CB000002001001448814201DB14480100FF209C
:100CC00041430800114901F0EFFCFF210200891A9D
:100CD0000F4A117070BD00005D0100205E01002010
:100CE0004C010020BC000020FC000020BE050000DC
:100CF000A70F0000EB090000EA09000050010020E6
:100D0000F8FBFFFF03FCFFFF970B0000960B0000B2
:100D10005C01002038B594B008A8302100F032F80A
:100D20006846102100F02EF804A8102100F02AF8DF
:100D30001220089001240B940D9410200C900E901A
:100D40000025109508A801F009FD002801D000F049
:100D500018F8072000900195029503950021684638
:100D600001F05CFF002801D000F00BF80494069518
:100D700004A802F041F8002801D000F002F815B0F4
:100D800030BD70470022FFE71300103906D330B49E
:100D90001400150010393CC0FCD230BC490700D308
:100DA0000CC000D504C0890002D30280801C002939
:100DB00000D502707047FEE7FCB502000024086809
:100DC000E040002800D1ECE0012508682E00A64094
:100DD000064001960198002800D1E0E0486802280A
:100DE00002D0486812281FD1E0080426704310186A
:100DF000076A072000970F26B446270007400426FD
:100E000077436646BE40009FB743BC460E69270045
:100E1000384004277843864067463E433300E00865
:100E2000042670431018036217680326BC46270087
:100E3000022047433000B8406746874300974F6819
:100E40003740BC4620000227784367468740009819
:100E5000074317604868012808D04868022805D071
:100E60004868112802D04868122820D193689C460F
:100E7000230002204343300098406346834300939D
:100E8000C868844623000220434360469840009B84
:100E9000184300900098906053682800A040834356
:100EA000486800092840A040184307005760D368ED
:100EB0009C4623000220434330009840634683430E
:100EC00000938B689C46200002235843634683406E
:100ED00000980343D3604868C00060D5384807686D
:100EE0002F430760006828400090009835488446EA
:100EF000A708042047436046C05900900F27BC460E
:100F00002700300038400427784367468740009820
:100F1000B8439027FF05BA4201D1002508E02A4BCB
:100F20009A4205D0294B9A4201D1022500E00525BD
:100F300023001E4004235E43B54005432148A30817
:100F400004267343C550224B1868019EB0434E6877
:100F5000F60302D505000198284318601D4D2B6843
:100F6000019EB3434E68B60302D51800019B0343AC
:100F70002B60194D2868019EB0434E68F60202D5D9
:100F80000300019818432860144D2B68019EB34359
:100F90004E68B60202D51800019B03432B60641C07
:100FA0000DE7F3BD00B51300DBB2002B03D00B003F
:100FB0009BB2836102E00B009BB2836200BD000024
:100FC00018100240080001400004004800080048D2
:100FD0000004014004040140080401400C040140E5
:100FE00080B50648016810220A430260002001F023
:100FF0009BFF01F0C1FF002002BD00000020024065
:10100000F0B589B0012437480168214301600068C8
:1010100020400090009880218902334802680A43EA
:10102000026002681140009100998021C9020268A3
:101030000A4302600068014000910098684614214C
:10104000FFF7A0FE00940194022602960025039566
:1010500004959027FF0569463800FFF7ADFE00961E
:10106000019502940395049569463800FFF7A4FEA4
:1010700080200090019502940395049569461B48D1
:10108000FFF79AFE1A480590079608950694194DA1
:1010900005A9280001F08AFF174A0021280001F065
:1010A000F6FF16480590079608940694144C05A977
:1010B000200001F07BFF134A0021200001F0E7FF30
:1010C00000220021052002F07AF8052002F081F8C4
:1010D00000220021072002F072F8072002F079F8C0
:1010E00009B0F0BD1810024014100240000400487E
:1010F000010000063C010020BD0B000807000006AF
:1011000044010020C70B000880B5012008490A6887
:1011100002430A60096808400090009800220021FC
:10112000092002F04CF8092002F053F801BD00BF7D
:10113000141002403EB568460C21FFF723FE444CD4
:101140004448206000206060A060E06001252561C7
:101150000821616101002176010061760100A1761C
:101160000100E176E0618021C9002162290024228A
:10117000A154A062200000F0FBF8002801D0FFF786
:1011800000FE0220009080204001019002956946F7
:10119000200000F0B3FA002801D0FFF7F2FD032091
:1011A00000906946200000F0A9FA002801D0FFF75E
:1011B000E8FD37BD70B586B0040001A81421FFF723
:1011C000E1FD2068234988423FD1802080002249E8
:1011D0000A6802430A60096808400090009880206D
:1011E00080021E490A6802430A60096808400090AC
:1011F00000980C200190032002900025039501A97E
:101200009020C005FFF7D8FD154E16483060756078
:10121000B5608020F0608020400030618020C000F8
:1012200070612020B061F561300001F0EBFF002813
:1012300001D0FFF7A6FD26637462002200210C2076
:1012400001F0BDFF0C2001F0C4FF06B070BD00002E
:10125000BC0000200024014018100240141002407D
:10126000780000200800024030B595B011A8102188
:10127000FFF788FD384803C86A4603C2083A0AA83F
:101280001C21FFF77FFD02A82021FFF77BFD334DD6
:1012900033482860334868600024AC603248E86016
:1012A0002C616C618020A861280000F09DFB002863
:1012B00001D0FFF766FD80204001119011A92800A0
:1012C00000F015FC002801D0FFF75BFD280000F0BE
:1012D000BDFB002801D0FFF754FD202000900194B1
:1012E0006946280002F092F8002801D0FFF749FD76
:1012F0000A940B940C940D940E940F941094002265
:101300000AA9280000F0BEFB002801D0FFF739FD34
:10131000029403940494059406948020800107901D
:10132000099402A9280002F0A4F8002801D0FFF7D0
:1013300028FD15B030BD80B50168094A914209D138
:1013400080210901094A13680B4313601268114098
:101350000091009901BD0000EC370008FC0000205E
:10136000002C01401F1C0000E70300001810024081
:10137000F8B5040000252F002E00002C01D101201B
:10138000D4E0A06B002806D1E56328003421605426
:101390002000FFF70FFF1020A16B0140002900D0B3
:1013A000BDE03900C9B2002900D0B8E004222168AC
:1013B00089681140002900D0B1E0A36B5C49194055
:1013C00002230B43A363216889688907890F0129D8
:1013D0000AD1012123681B680B40002B03D123682D
:1013E000DB681B0400D500E0290000290FD121682B
:1013F000C96818239943A3680B432168CB6021680F
:1014000009698B009B086168194323681961216889
:10141000CB68484919402368D960A16A012902D0E4
:101420008021490100E029002369022B00D02A0015
:10143000B446237E9E03637EDB033343A67E76039E
:101440001E433143E3680B431A432421615C4E0081
:10145000164361460E43E17E01290FD1A17E00298A
:1014600004D13100802676020E4307E0A16B2022D2
:101470000A43A263E16B01220A43E263E169FF22AE
:10148000C232914204D03200E169266A0E4316430B
:101490002168C96831432268D160E16A802252051F
:1014A000914214D0E16A012911D0E16A02290ED0DB
:1014B000E16A03290BD0E16A042908D0E16A052911
:1014C00005D0E16A062902D0E16A07290ED1216818
:1014D00049690722914322685161216849692C2298
:1014E000A25C5207520F0A4321684A612168C96809
:1014F000114A0A40B24207D1E563A06B022188433A
:1015000001210143A1630FE0A16B02229143084333
:10151000A0630120E16B0143E163070004E0A16BDC
:101520000843A063012007003800C0B2F2BD0000EC
:10153000FFFEFFFF1902FEFFE7FF3F83F7B5040040
:101540000025280069460870042720688068384014
:10155000002844D13420205C012801D1022043E03E
:101560000126300034216054607E012804D0200020
:1015700000F086F96946087068460078002831D185
:10158000A06B5A490140802040000843A063E563F6
:10159000342025545648216B88625648216BC86216
:1015A0005548216B08631C2021680860206840684A
:1015B00010210143206841602068C068064320680C
:1015C000C660029B019A206801004031206B01F047
:1015D00045FE2068806807432068876002E002209B
:1015E0006946087068460078FEBD38B504000420DE
:1015F000216809680140002904D021684968014038
:1016000000290AD10821226812680A40002A3AD02B
:10161000226852681140002935D0A16BC90604D454
:10162000A16B802292000A43A2632168C968C0228C
:1016300012010A40002A20D1A17E00291DD1216873
:101640000968090719D521688968084000280CD164
:10165000206840680C21884321684860A06B874956
:10166000014001200843A06307E0A06B2021014353
:10167000A163E06B01210143E1632000FFF7D8FA89
:101680000C20216808608025206800682840002818
:101690000ED0206840682840002809D0A06B802127
:1016A00049020143A163200001F022FF2068056088
:1016B0001025206800682840002816D0206840685F
:1016C0002840002811D0A06A012803D02068C068F3
:1016D000C00708D5E06B02210143E1632068056083
:1016E000200001F006FF2068056031BDFEF1FFFF1C
:1016F00039190008BD190008CB190008F8B5040015
:101700000D0000273E00009780214905E06A8842CD
:1017100013D0E06A012810D0E06A02280DD0E06AF8
:1017200003280AD0E06A042807D0E06A052804D01C
:10173000E06A062801D0E06A07283420205C0128EE
:1017400001D1022098E0012210003423E0542068E7
:101750008068400700D586E06868734B98425FD088
:101760002068806A2B689A40024320688262E06A9F
:10177000884228D0E06A012825D0E06A022822D0D9
:10178000E06A03281FD0E06A04281CD0E06A05281C
:1017900019D0E06A062816D0E06A072813D007207F
:1017A000A96822685269024091420CD021684969B7
:1017B000072291432268516121684969AA68104053
:1017C0000843216848612868102805D02868112836
:1017D00002D0286812284BD12868102802D1802016
:1017E000000407E02868112802D18020C00301E02E
:1017F000802040044D490A6810430860286810287A
:1018000036D14B4800684B4900F051FF0A2148434C
:101810000090009800282BD00098401E0090F8E718
:101820002068806A29688A40904321688862286815
:10183000102805D02868112802D02868122817D14E
:101840002868102802D18021090407E0286811289F
:1018500002D18021C90301E0802149043348026894
:101860008A43026004E0A06B20210143A1631600BB
:10187000342027543000C0B2F2BD0000FFFEFFFF4D
:101880007CB5040000200600009021688968890763
:10189000890F01290BD10121226812680A40002A10
:1018A00003D12268D268120401D50800FFE700289E
:1018B00038D1206880683F490140002909D0A06BD9
:1018C00010210143A163E06B01210143E163012089
:1018D00029E0012520688068284321688860144831
:1018E0000068144900F0E3FE00900098002803D03F
:1018F0000098401E0090F8E7FFF75AF906002068AC
:101900000068284000280DD1FFF752F9801B0328FA
:10191000F5D3A06B10210143A163E06B0543E563A0
:10192000012000E0002076BD0110000008270140E2
:101930000C00002040420F0038B50400656AA86B17
:101940005021014000292FD1A86B8021890001433B
:10195000A9632868C068C0210901014000291FD17E
:10196000A87E00281CD128680068000718D52868C0
:10197000806840070CD4286840680C218843296897
:101980004860A86B0C49014001200843A86307E0A8
:10199000A86B20210143A963E86B01210143E9639E
:1019A0002800FFF745F903E02000296B096B884701
:1019B00031BD000017000080FFFEFFFF38B50400B6
:1019C000656A280001F096FD31BD38B50400656AEE
:1019D000A86B40210143A963E86B04210143E9633B
:1019E000280001F086FD31BD10B50400002C01D1A6
:1019F000012014E03D20205C002805D100203C217E
:101A000060542000FFF797FC02203D216054211D07
:101A1000206800F0E7F801203D216054002010BD4F
:101A200000B5010002203D22885408688068420702
:101A3000520F062A05D0086800680123034308688E
:101A4000036001203D23C854002000BD10B50400F0
:101A5000002C01D1012014E03D20205C002805D19C
:101A600000203C216054200001F045FD02203D2172
:101A70006054211D206800F0B5F801203D2160541C
:101A8000002010BDF8B504000E0017003C20205CBB
:101A9000012801D1022029E001253C202554022003
:101AA0003D2160543800002806D0042809D00828B9
:101AB0000CD00C280FD013E03100206800F0D0F8D3
:101AC0000EE03100206800F003F909E031002068E1
:101AD00000F035F904E03100206800F065F9FFE717
:101AE0003D20255400203C2160540020F2BDF8B573
:101AF00004000D003C20205C012801D102206DE093
:101B000001263C20265402203D2160542068806834
:101B100077218843324F0740206887602868002873
:101B200051D010284FD020284DD030284BD04028FD
:101B30003FD0502829D0602831D0702809D080218A
:101B40004901884204D08021890188420FD03FE0BA
:101B50003EE0EB686A68A968206800F091F92068A7
:101B60008068772101430F002068876030E0EB68D0
:101B70006A68A968206800F083F92068806880217D
:101B8000C90101432068816022E0EA686968206831
:101B900000F042F95021206800F06AF918E0EA6884
:101BA0006968206800F04AF96021206800F060F957
:101BB0000EE0EA686968206800F02EF9402120688C
:101BC00000F056F904E02968206800F051F9FFE7B9
:101BD0003D20265400203C2160540020F2BD00002E
:101BE000FF00FFFF10B50368834A904206D08024AF
:101BF000E405A04202D0814CA04204D17024A3434A
:101C00001C004B68234390420FD08024E405A0427F
:101C10000BD07A4CA04208D0794CA04205D0794C28
:101C2000A04202D0784CA04203D1784C1C40CB6833
:101C300023438024A3434C691C4304608B68C36224
:101C40000B688362904205D06E4A904202D06E4A81
:101C5000904201D10A6902630122426110BD000075
:101C600070B5026A01239A430262056A4368846977
:101C700070229443032294430A6822430224A5431A
:101C80008C682C435C4DA84205D05E4EB04202D019
:101C90005D4EB04206D10826B4432600CC683443DA
:101CA0000426B443A84205D0564DA84202D0564D52
:101CB000A84207D1564D1D406B4B2B404D691D432B
:101CC0008B692B43436082614D684563046270BD3C
:101CD00070B5026A10239A430262036A42688469FB
:101CE0004C4D2540494E2E400C682402344320259B
:101CF000AB438D682D011D433F4B984207D1802691
:101D0000B5432E00CD682D0135434026B54398429A
:101D100005D03C4B984202D03B4B984209D1514BE5
:101D20001340524A1A404B699B0013438A69920040
:101D30001A43426084614B688363056270BDF0B5ED
:101D4000026A334B13400362046A4268C569702318
:101D50009D4303239D430B682B43434D25408C68D3
:101D600024022C43244DA84206D1404E2640CC6884
:101D7000270237433B4C3C40A84205D0214DA842A6
:101D800002D0214DA84209D1434D1540434A2A4073
:101D90004D692D0115438A6912012A434260C361CE
:101DA0004D68C5630462F0BD70B5026A3A4B1340DA
:101DB0000362036A4268C469164D2540134E2E40E3
:101DC0000C6824023443354D1D408B681B032B43A4
:101DD000094DA84205D00B4DA84202D00A4DA84299
:101DE00004D12F4D15404A6992012A434260C461D3
:101DF0004D680564036270BD002C01400004004082
:101E0000002000400044014000480140FFFCFFFF6B
:101E1000FFFEFFFFFF8FFFFF30B4036A046A012556
:101E2000AC4304628469F025AC43150125430A24C0
:101E3000A3430B438561036230BC704730B4036A2F
:101E40001024A34303628469036A164D25401403DA
:101E50002C43A025AB430D011D438461056230BCBA
:101E600070470000FFFBFFFFFFFDFFFFFFF7FFFFD5
:101E7000826870239A4307230B43134383607047A0
:101E800070B48468084D254016000E431C0234438C
:101E90002C43846070BC7047FFEFFFFFFFDFFFFF44
:101EA000FFBFFFFFFF0FFFFFFF00FFFF0100C9B2F1
:101EB000C843C0B27047F3B581B000AFBF1C6846DD
:101EC00000798021014339706846007A787068464D
:101ED000002101709024E405002210212000FFF76A
:101EE00061F8A84EFA25AD002B00022200A9891C3A
:101EF0003000FEF745F9002801D0FEF742FF01222D
:101F000010212000FFF74EF8002210212000FFF7DB
:101F100049F86846007938702B00012200A9891C15
:101F20003000FEF72DF9002801D0FEF72AFF2B0024
:101F3000012269463000FEF737FA002801D0FEF78B
:101F400020FF012210212000FFF72CF868460078BE
:101F5000FFF7ACFF69460870684600786946097A61
:101F60008842AAD1F7BDF3B581B000AFBF1C684667
:101F700000798021014339706846007A787068469C
:101F8000002101709024E405002210212000FFF7B9
:101F900009F87C4EFA25AD002B00022200A9891C0D
:101FA0003000FEF7EDF8002801D0FEF7EAFE01222E
:101FB00010212000FEF7F6FF002210212000FEF77E
:101FC000F1FF6846007938702B00012200A9891CB6
:101FD0003000FEF7D5F8002801D0FEF7D2FE2B0026
:101FE000012269463000FEF7DFF9002801D0FEF734
:101FF000C8FE012210212000FEF7D4FF68460078B9
:10200000FFF754FF69460870684600786946097A08
:10201000884201D0FEF7B5FEF7BDF8B50700684667
:1020200047706846002101709026F60500221021B5
:102030003000FEF7B7FF534DFA24A400230001221D
:1020400000A9491C2800FEF79BF8002801D0FEF7E4
:1020500098FE2300012269462800FEF7A5F9002812
:1020600001D0FEF78EFE012210213000FEF79AFF0C
:1020700068460078FFF71AFF6946087068460078DE
:10208000F2BD7CB506000D00684680213143017029
:1020900045709024E405002210212000FEF782FF05
:1020A000FA239B00022269463648FEF769F80028A9
:1020B00001D0FEF766FE012210212000FEF772FF1C
:1020C00073BD70B51220FFF7A8FF0400AF4E307843
:1020D000002805D1600603D52020204000F054F8E8
:1020E00008252C4201D000F01FF82100C9B21220AF
:1020F000FFF7C7FF3078002805D02C4203D083219A
:102100000120FFF7BEFF70BD80B500210D20FFF755
:102110002AFF00211020FFF726FF01BD80B5802196
:102120000D20FFF720FF01BD30B585B06846984906
:10213000142201F0E1F997486C4601782174017886
:10214000491C017080210D20FFF79BFF9025ED05B4
:10215000002210212800FEF725FF80202070FA239E
:102160009B00112269460748FEF70AF8002801D0B3
:10217000FEF707FE012210212800FEF713FF05B02D
:1021800030BD000014000020F1B58AB001A8801C09
:102190000021018005A81021FEF7F4FD1020FFF7B3
:1021A0003CFF69460871684601790D20FFF769FF19
:1021B0001320FFF732FF0400002210219020C005F9
:1021C000FEF7F0FE002069468871B94FFA25AD0090
:1021D0002B00012201A9891C3800FDF7D1FF00283E
:1021E00001D0FEF7CEFD2000C0B200284CD02B005D
:1021F000102205A93800FEF7D7F8002801D0FEF715
:10220000C0FD05AE3078FFF751FE30707078FFF7F3
:102210004DFE7070B078FFF749FEB070F078FFF7B0
:1022200045FEF0703079FFF741FE30717079FFF7AD
:102230003DFE7071B079FFF739FEB071F079FFF7AC
:1022400035FEF071307AFFF731FE3072707AFFF7A9
:102250002DFE7072B07AFFF729FEB072F07AFFF7A8
:1022600025FEF072307BFFF721FE3073707BFFF7A5
:102270001DFE7073B07BFFF719FEB073F07BFFF7A4
:1022800015FEF073103CAEE7012210219020C0052E
:10229000FEF788FE1A20FFF7C0FE06001A20FFF79F
:1022A000BCFE6946C870694603200856042100F048
:1022B000FBF969460881029800B2002812D4350063
:1022C000EDB29D3D280000B26221C94388420FDB78
:1022D0003000C0B2102148430F2100F0E5F99D38CD
:1022E000050005E03000C0B2029909B245189D3DD5
:1022F0002820FFF792FE694688702920FFF78DFE9F
:10230000694648702A20FFF788FE694608706846CB
:1023100080780007694649780905014368460078D6
:102320000003084300130390039864214843BF212E
:10233000890000F0B9F9BA49401804900AA8007859
:10234000002802D01020B74908700AA80078002899
:1023500006D1B4480178002902D00178491E0170E5
:10236000B048007800280ED1AF4F386807214843A5
:1023700004994018082100F097F938603868AB4993
:10238000401800F009F80BB0F0BD0000110000206B
:10239000783700085F010020F1B584B0A44DA54C4A
:1023A00020680021049AD317801A9941A24A002379
:1023B00001F0BCF8A14A012301F0D1F8286004988B
:1023C0009F494843216800F06FF9039003986946DC
:1023D0000870684600780100C9B22720FFF7C3FDE6
:1023E00001A898490A68026001AE2868000C707064
:1023F0002868000AB0702868F0709024E405002274
:1024000010212000FEF7CEFDFA27BF003B0004227A
:1024100001A92748FDF7B4FE002801D0FEF7B1FC62
:10242000012210212000FEF7BDFD00221021200016
:10243000FEF7B8FD062030701D4E3B00012201A9B9
:102440003000FDF79DFE002801D0FEF79AFC3B000E
:10245000032202A93000FDF7A7FF002801D0FEF7F4
:1024600090FC012210212000FEF79CFD02AC207898
:10247000FFF71CFD20706078FFF718FD6070A078F2
:10248000FFF714FDA07020782968090CC9B28842B2
:102490000AD160782968090AC9B2884204D1A078B3
:1024A0002978C9B2884201D0FEF76BFC05B0F0BDB7
:1024B00014000020FEB56846002101608021012043
:1024C000FFF7F9FC81210120FFF7F5FCFF21122025
:1024D000FFF7D7FD6C4686202070D920607013204E
:1024E000A0703320E0709025ED0500221021280017
:1024F000FEF758FD544FFA26B60033000422694611
:102500003800FDF73DFE002801D0FEF73AFC01221D
:1025100010212800FEF746FD002210212800FEF7BA
:1025200041FD062020703300012269463800FDF786
:1025300027FE002801D0FEF724FC3300032201A966
:102540003800FDF731FF002801D0FEF71AFC012208
:1025500010212800FEF726FD01AC2078FFF7A6FC2D
:1025600020706078FFF7A2FC6070A078FFF79EFCF7
:10257000A0702078D92805D16078132802D1A078DE
:10258000332801D0FEF7FDFB00210920FFF7EBFC0B
:102590002D210B20FFF7E7FC23210C20FFF771FD15
:1025A00073211D20FFF7DFFC74211E20FFF7DBFCE9
:1025B00004212620FFF7D7FC10212220FFF7D3FCAF
:1025C00010212320FFF7CFFC80210E20FFF7CBFC4A
:1025D00000210F20FFF7C7FC1C4C2078002802D0F8
:1025E000FFF79CFD01E0FFF78FFD2078002804D065
:1025F00040214020FFF7B7FC03E000214020FFF717
:10260000B2FC2078002804D083210120FFF739FD97
:1026100003E085210120FFF74EFC0020FEBD0000F5
:10262000A086010012000020080000206079FEFF53
:10263000580100200400002000E1F505E941CC6BC1
:10264000F07E0E00F4370008140000201100002076
:1026500070B50400FEF7ACFA050026000020C04368
:10266000864202D0044800783618FEF7A1FA401BD3
:10267000B042FAD370BD00BF10000020F44600281D
:1026800004D4494200F013F8404260474042002918
:1026900005D45FD000F00BF8404249426047494200
:1026A00000F005F84942604703460B43E6D4002298
:1026B000030A8B420BD203098B4219D243088B4287
:1026C0002ED2411A00D20146524110467047FF22D5
:1026D00009023FD012068B4205D3121209028B4227
:1026E00001D31212090203098B4219D300E0090A2F
:1026F000C3098B4201D3CB01C01A524183098B42DB
:1027000001D38B01C01A524143098B4201D34B01C3
:10271000C01A524103098B4201D30B01C01A524126
:10272000C3088B4201D3CB00C01A524183088B42AD
:1027300001D38B00C01A524143088B4201D34B0096
:10274000C01A5241884200D3401A5241CFD20146AA
:102750001046704708B500F057FF08BDF8B584B0C3
:102760000400002C01D101204AE22078C00766D580
:102770000C20B4490A680240042A09D00A681040B3
:1027800008280ED18020400209680140814208D10A
:10279000AD480068800352D5606800284FD1012001
:1027A0002EE26068012806D1A74801688022520203
:1027B0000A43026024E06068002809D1A248016849
:1027C000A24A0A4002600168A14A0A40026017E07A
:1027D000606805280BD19C4801688022D2020A4318
:1027E00002600168802252020A43026008E09648B3
:1027F0000168964A0A4002600168954A0A400260F0
:10280000606800280DD0FEF7D3F905008E480068F7
:10281000800314D4FEF7CCF9401B6528F6D30320BF
:10282000EEE1FEF7C5F9050087480068800306D58C
:10283000FEF7BEF9401B6528F6D30320E0E102262F
:102840002068304000284FD00C207E490A680240A2
:10285000002A06D00A681040082814D10868C0036E
:1028600011D4794801683140002904D0E168012978
:1028700001D00120C4E10168F82291432269D2000D
:102880000A43026030E0E06800281AD06E4F3868D2
:10289000012101433960FEF78BF9050038683040AB
:1028A000002806D1FEF784F9401B0328F6D3032045
:1028B000A6E13868F82188432169C90001433960DD
:1028C00012E0614F3868012188433860FEF770F9E3
:1028D000050038683040002806D0FEF769F9401B33
:1028E0000328F6D303208BE12078000728D5E06980
:1028F000002812D0C34F3868012101433960FEF728
:1029000057F9050038683040002819D1FEF750F912
:10291000401B0328F6D3032072E1BA4F3868012127
:1029200088433860FEF744F90500386830400028D5
:1029300006D0FEF73DF9401B0328F6D303205FE1E4
:10294000042720683840002800D18CE00020694628
:10295000087080204005AC490968014000290AD16F
:10296000A9490A6802430A6009680840039003986D
:10297000012069460870A5480068C00514D4A34822
:102980000068802149000143A0480160FEF710F96A
:1029900005009E480068C00506D4FEF709F9401BF3
:1029A0006528F6D303202BE1A068012805D19848BB
:1029B000016801220A43026021E0A068002809D1D1
:1029C0009348016801229143016001680422914308
:1029D000016014E0A068052808D18D4801683943DA
:1029E0000160016801220A43026008E0884801682A
:1029F0000122914301600168042291430160A068B3
:102A000000280FD0FEF7D4F8050081480068304058
:102A100000281FD1FEF7CCF8401B7E498842F4D332
:102A20000320EDE0FEF7C4F8050079480068304067
:102A300000280FD0FEF7BCF8401B76498842F4D33B
:102A40000320DDE00410024000100240FFFFFEFF03
:102A5000FFFFFBFF68460078012804D16A4801683F
:102A60006D4A0A4002602078C00650D5606901288E
:102A700022D1B44800680743B2480760B1480068F3
:102A800001210143AF480160FEF792F80500AD480F
:102A900000683040002806D1FEF78AF8401B032862
:102AA000F5D30320ACE0A7480168F8229143A2695E
:102AB000D2000A4302602AE00421C94360698842C7
:102AC0000BD1A0480268114001600168F8229143CF
:102AD000A269D2000A43026019E09A4800680743DD
:102AE0009848076097480068012188439549086025
:102AF000FEF75EF80500934800683040002806D0D5
:102B0000FEF756F8401B0328F5D3032078E0206A2F
:102B1000002874D08C4800680C21014008294DD051
:102B2000206A022838D1894F3868894901403960C4
:102B3000FEF73EF800908026B60438683040002842
:102B400007D0FEF735F80099401A0328F3D3032085
:102B500056E09E4801680F229143E26A0A430260F0
:102B6000794801687B4A0A40A16A1143626A0A43B4
:102B7000026038688021490401433960FEF718F883
:102B8000050038683040002839D1FEF711F8401BA5
:102B90000328F6D3032033E06C4E30686C490140C3
:102BA0003160FEF705F805003068800127D5FDF794
:102BB000FFFF401B0328F7D3032021E0206A0128F0
:102BC00001D101201CE06048006801907F48006846
:102BD00002900198802149020840616A88420CD124
:102BE00002980007000FE16A884206D10198F0219F
:102BF00089030140A06A814201D0012000E0002049
:102C000005B0F0BD241002401C10024000700040CE
:102C10002010024089130000FFFFFFEFF3B581B0E1
:102C20000400002C01D101208BE00125684E3068A2
:102C30002840029988420CD23068012188430299C9
:102C400001433160306828400299884201D0012058
:102C500077E002202168014000290FD02178490740
:102C600005D539490A68E023DB0013430B60364978
:102C70000A68F0239A43A36813430B602168294034
:102C8000002932D06168012905D1304800688003ED
:102C900011D4012055E06168022905D12B48006854
:102CA000800108D401204CE0284909680840002828
:102CB00001D1012045E0244F386803218843616831
:102CC00001433960FDF774FF009038680C21014022
:102CD00060688000814208D0FDF76AFF0099401AC1
:102CE0003C498842F1D303202BE002983168294007
:102CF00088420CD230680121884302990143316037
:102D0000306805400298854201D0012019E0207802
:102D1000400706D50C4801682F4A0A40E168114374
:102D2000016000F019F82D49074A126812091207CC
:102D3000120F895CC8402A490860002000F0F4F8AE
:102D40000020FEBD3410024004100240001002407A
:102D5000FFFFFFFEFFFFC2FFF0B589B005A82149C4
:102D6000102200F0C9FB01A81F49102200F0C4FB8B
:102D7000002420000094250026001C490F680C2127
:102D80003940042902D0082902D01BE018481AE073
:102D90000F2005A9BA0C0240895C0E0001A90B4A5C
:102DA00012681040085C0090F80306D5104800999E
:102DB000FFF77DFC7043050002E00E4870430500FC
:102DC000280000E00A4809B0F0BD00002C100240C5
:102DD0000020024089130000FFF8FFFFC037000801
:102DE0000C000020A0370008B03700080410024093
:102DF00000127A0000093D00F8B584B007000020F9
:102E0000029001908024640239682140002964D036
:102E100069460870802040053B4D29680140002923
:102E200009D1296801432960296808400390039863
:102E3000012069460870354E3068C00512D43068EC
:102E40008021490001433160FDF7B2FE02903068F5
:102E5000C00507D4FDF7ACFE0299401A6528F6D3E9
:102E600003204FE0C0208000294E316801400191CD
:102E70000199002923D001997A68104081421ED01F
:102E8000306824490140019130680443346030685F
:102E9000214901403160019830600198C0070ED58A
:102EA000FDF786FE02903068800708D4FDF780FEAB
:102EB0000299401A19498842F5D3032022E030686C
:102EC000144901407868084330606846007801285A
:102ED00003D128681249014029603878C00706D517
:102EE0001048016803229143BA680A4302603878A7
:102EF000800606D50B48016810229143FA680A4300
:102F00000260002005B0F0BD1C10024000700040BF
:102F100020100240FFFCFFFFFFFFFEFF89130000AF
:102F2000FFFFFFEF3010024010B50400FA208000D0
:102F30000E490978FFF7BBFB01000D480068FFF759
:102F4000B6FB00F04DF9002801D001200CE0042C64
:102F500009D2002221000020C04300F030F90548CA
:102F60000460002000E0012010BD00BF1000002020
:102F70000C0000200000002081B0012009490A68EF
:102F800002430A60096808400090009880204005CC
:102F900005490A6802430A600968084000900098E1
:102FA00001B07047181002401C100240FCB502002E
:102FB000002A01D0002901D1012067E008681060D3
:102FC0000878C006C00E019001200300019CA340B8
:102FD0000C68A40140D58C680440002C04D03C4C03
:102FE00025681D43256003E0394C25689D43256015
:102FF0000C7AA40704D5374C25681D43256003E0EF
:10300000344C25689D432560C024E4040D682540A8
:10301000A54221D1304C019DAD0804267543675966
:10302000032500970F26B446019F2F4004267743BF
:103030006646BE40009FB743BC46CE68019F3D40F8
:1030400004277D43AE4067463E430096009D019EA7
:10305000B60804277E43A5514C682040002804D0C0
:103060001E4804681C43046003E01C4804689C4339
:1030700004600879800704D5194804681C4304607B
:1030800003E0174804689C4304600020F6BD10B5B7
:10309000030000200C00E4B2002C01D15A6001E0D2
:1030A00001242000C0B210BD70B5040001252078B5
:1030B000C006C00E85400B4806682E40002E05D085
:1030C00005606068002801D06068804770BD00001E
:1030D000080401400C0401400800014000040140C4
:1030E000040401401404014000B5010049B2002964
:1030F00005D40121C206D20E91403C4A116000BDA8
:10310000F0B5020052B2002A1CD40322384B04004E
:1031100064B2A40804256C431C59FF251600064020
:1031200008277E43B540AC438D01EDB2024008262E
:10313000724395402543020052B292080424624330
:103140009D5022E00F242B4A032305006DB2254039
:10315000083DAD0804267543060076B23440083CAD
:10316000A408042674431659FF27BC461C000440DB
:1031700008277C436746A740BE438C01E4B2034066
:1031800008277B439C4034435451F0BD10B50400E4
:10319000601E80214904884201D301200EE0601E98
:1031A0001549086003210020C043FFF7A9FF002054
:1031B00012490860072012490860002010BD70B550
:1031C00005000C0016002100280040B2FFF798FF10
:1031D00070BD10B50400200040B2FFF785FF10BDA0
:1031E00010B504002000FFF7D1FF10BD00E100E0A2
:1031F00000E400E01CED00E014E000E018E000E076
:1032000010E000E0F8B5040000252F00002C01D1EB
:10321000012020E0022021216054206801680E482E
:1032200008406168A2680A43E168114322690A43C1
:1032300061691143A2690A43E6691643064320689F
:103240000660200000F0D0F8A56301202121605421
:10325000202025540020F2BD0FC0FFFFF7B5040069
:103260001F00002006002021615C012901D10220FD
:1032700039E0012529002022A1542121615C012986
:103280002BD102212122A154A063206800680121D2
:103290008843216808603B00029A0199200000F0F1
:1032A0008EF8E06A002806D0206800680E210143ED
:1032B000206801600BE0206800680A210143206853
:1032C0000160206800680421884321680860206844
:1032D000006805432068056003E020216054022057
:1032E00006003000C0B2FEBD70B50400E06B05689A
:1032F000206806680420216C02008A402A40002AC7
:1033000016D0064214D021680968890605D42168C0
:1033100009680422914322681160216C8840E16BA6
:103320004860E06A002849D02000E16A884745E00B
:103330000220216C02008A402A40002A1CD006424A
:103340001AD021680968890608D4216809680A2208
:1033500091432268116001212122A154216C8840EF
:10336000E16B4860002020216054A06A002825D02D
:103370002000A16A884721E00820216C02008A40D1
:103380002A40002A1AD03040002817D02068006850
:103390000E218843216808600120216C02008A40C8
:1033A000E16B4A60A0632121605400202021605419
:1033B000206B002802D02000216B884770BD30B5FB
:1033C0000124056CAC40C56B6C60046863604468A4
:1033D000102C04D10468A2600468E16003E0046872
:1033E000A1600468E26030BD10B5040020680549A2
:1033F00040181421FFF75BF9800020640248E06365
:1034000010BD0000F8FFFDBF0000024070B50200D3
:103410003C20105C012801D1022029E001203C233E
:10342000D05402233D24135513685D6813689B68CC
:103430007024A5430C682C4315686C601568254EF4
:10344000B54208D015688026F605B54203D0156848
:10345000214EB54206D18025AB431D004B682B435E
:103460001568AB603D25505500203C255055002087
:1034700070BD30B50200002003003C24145D012C17
:1034800001D1022023E001243C255455FF24A3430D
:10349000CC681C43114D25408B682B43104C1C40BD
:1034A0004B6823430F4C1C400B6823430E4C1C40BD
:1034B0000B692343064C1C404B6923430B4C1C40B7
:1034C000CB692343146863643C241055002030BD4D
:1034D000FFDFFFFF002C014000040040FFFCFFFF66
:1034E000FFFBFFFFFFF7FFFFFFEFFFFFFFBFFFFF48
:1034F000704770477047704770B4103A03D378C96B
:10350000103A78C0FBD2530701D318C918C001D5AF
:1035100008C908C0D20704D30B880380891C801C0B
:10352000002A01D50B78037070BC704730B4434358
:1035300051435D18010C0C00130C5C432D1980B233
:10354000434392B251430024C918644124040B043C
:10355000090C09195043C018694130BC704730B498
:10356000DC0F03D05B42524200D25B1E0D106C4058
:1035700013D0F446002502D349424042A94100F04D
:103580000DF8E40703D35B425242AB41244202D51B
:1035900049424042A94130BC604730BC124224D06D
:1035A000994228D970B500251B4202D00C00002199
:1035B00009E00024012649186441944200D3A41A6A
:1035C0007641F8D33100012601E0764109D2001896
:1035D00064416D41A41A9D41F7D2A4185D41B6190A
:1035E000F5D3300022002B0070BD1B42D8D108B5A6
:1035F00000F00CF808BD01D19042D3D202000B00BC
:10360000002100207047FEE77047FEE77047FEE7A5
:10361000704700B5FEE77047704780B500F01EF8B0
:1036200001BD80B50948FFF73FFD01BD80B50848E1
:10363000FFF73AFD01BD80B50648FFF755FE01BD15
:1036400080B50548FDF7D1FF01BD00003C01002019
:103650004401002078000020BC00002003480168DD
:10366000034A127889180160704700BF5401002096
:103670001000002070B40123002413E00168001D35
:10368000194202D04D466D1E49190C60091D121FCA
:10369000042AFAD20D00960701D50C80AD1C1A4001
:1036A00000D02C700268001D002AE7D170BC704762
:1036B00030B401220168001D00290FD00368C3182F
:1036C00044680830144202D04D466D1E64191D68CE
:1036D00025601B1D241D091FECD0F8E730BC704786
:1036E00010B5074979441831064C7C44163404E07F
:1036F000081D0A68891888470100A142F8D110BD49
:1037000008000000280000006DFFFFFF4C010000D2
:10371000140000200000000099FFFFFF14000000CB
:103720006C000000000000200000000000F00DF818
:10373000002801D0FFF7D4FF00BF00BF002000BF6A
:1037400000BFFDF745FA00F002F80120704780B590
:1037500000F002F801BDFEE70746384600F002F827
:10376000FBE7FEE780B500BF00BF024A110018204A
:10377000ABBEFBE7260002000001020304050607BA
:1037800008090A0B0C0D0E0F0000000004000000D9
:103790004025C133A086010000127A00010110000B
:1037A00002030405060708090A0B0C0D0E0F101082
:1037B0000102030405060708090A0B0C0D0E0F1081
:1037C00000000000000000000102030406070809D1
:1037D000014880470148004711380008E1370008D8
:1037E00000BF00BF00BF00BFFFF7A0FF0000000048
:1037F0000000000086000000FEE7FEE7FEE7FEE7AF
:10380000FEE7FEE7FEE7FEE7FEE7FEE7FEE7FEE790
:023810007047FF
:04000005080037E1D7
:00000001FF
