:020000040800F2
:100000008004002055220008012200080322000875
:10001000052200080722000809220008000000004D
:100020000000000000000000000000000B2200089B
:100030000D220008000000000F2200081122000815
:100040008122000885220008892200088D220008EC
:100050009122000895220008992200089D2200089C
:10006000A1220008A5220008A9220008AD2200084C
:10007000B1220008B5220008B9220008BD220008FC
:10008000C1220008C5220008C9220008CD220008AC
:10009000D1220008D5220008D9220008DD2200085C
:1000A000E1220008E5220008E9220008ED2200080C
:1000B000F1220008F5220008F9220008FD220008BC
:1000C0000123000805230008092300080D23000868
:1000D0001123000815230008192300081D23000818
:1000E0002123000825230008292300082D230008C8
:1000F00031230008000000003523000839230008E0
:1001000000000000000000003D230008412300081B
:1001100045230008492300084D2300080000000083
:10012000512300082DE9FE4F0400002C01D10120CD
:1001300089E2DFF8DC97D9F8005015F00C05D9F802
:10014000006016F480362078C00761D5082D04D0F1
:100150000C2D0CD1B6F5803F09D1DFF8B00700684F
:10016000800355D56068002852D101206BE2606899
:10017000012806D1DFF89407016851F4803101604D
:1001800025E0606800280AD1DFF88007016831F4B3
:1001900080310160016831F48021016017E06068FE
:1001A00005280AD1DFF86407016851F48021016055
:1001B000016851F48031016009E0DFF850070168FF
:1001C00031F480310160016831F4802101606068A0
:1001D00000280ED000F0BAFB0700DFF830070068F7
:1001E000800315D400F0B2FBC01B6528F5D30320B3
:1001F00029E200F0ABFB0700DFF81007006880037E
:1002000006D500F0A3FBC01B6528F5D303201AE236
:10021000207880074CD5042D03D00C2D15D1002E4D
:1002200013D1DFF8E8060068800704D5E0680128EC
:1002300001D0012007E2DFF8D006016831F4F8515F
:10024000226951EA0221016032E0E06800281CD0F6
:100250000120DFF8D016086000F078FB0700DFF817
:10026000AC060068800706D400F070FBC01B0328B2
:10027000F5D30320E7E1DFF89006016831F4F85187
:10028000226951EA0221016012E00020DFF8941691
:10029000086000F05BFB0700DFF87006006880076D
:1002A00006D500F053FBC01B0328F5D30320CAE199
:1002B0002078C00640F1A080002D64D1DFF84C0604
:1002C0000068800504D5A069002801D10120BAE1A9
:1002D000DFF83486D8F8000010F46040216A8842C4
:1002E00018D2206A00F0CDFA002801D00120AAE13E
:1002F000D8F8001031F46041206A0143C8F80010BA
:10030000D8F8000020F07F40E16950EA0160C8F8A9
:10031000000017E0D8F8001031F46041206A014372
:10032000C8F80010D8F8000020F07F40E16950EADA
:100330000160C8F80000206A00F0A3FA002801D08C
:10034000012080E10121206A400B401C81404FF4D4
:1003500000404143DFF8D005D9F80020C2F3031272
:10036000805CC140DFF8B0050160DFF8B0050068CF
:1003700000F0F2FA8DF800009DF8000000283BD054
:100380009DF800005FE1A069002822D00120DFF87D
:100390009C15086000F0DAFA0700DFF870050068C5
:1003A000800506D400F0D2FAC01B0328F5D3032041
:1003B00049E1DFF854150A6832F46042206A0243CA
:1003C0000A60086820F07F40E26950EA0260086035
:1003D00012E00020DFF85415086000F0B7FA0700BB
:1003E000DFF828050068800506D500F0AFFAC01BCD
:1003F0000328F5D3032026E12078000728D560697B
:10040000002812D00120DFF82815086000F09EFABD
:100410000700DFF80C050068800719D400F096FA91
:10042000C01B0328F5D303200DE10020DFF80015E1
:10043000086000F08BFA0700DFF8E404006880072A
:1004400006D500F083FAC01B0328F5D30320FAE099
:100450002078400740F18F805FF00008DFF8D4A4D7
:10046000DAF80000C0000DD4DAF8000050F0805037
:10047000CAF80000DAF8000010F0805001900198EE
:1004800001208046DFF8B0B4DBF80000C00513D4CB
:10049000DBF8000050F48070CBF8000000F056FA52
:1004A0000700DBF80000C00506D400F04FFAC01BBF
:1004B0006528F6D30320C6E0A068012806D1DFF83E
:1004C0006004016851F48071016025E0A068002893
:1004D0000AD1DFF84C04016831F4807101600168D1
:1004E00031F48061016017E0A06805280AD1DFF8C7
:1004F0003004016851F480610160016851F4807139
:10050000016009E0DFF81804016831F480710160CE
:10051000016831F480610160A068002810D000F00B
:1005200015FA0700DFF8F8030068800519D400F019
:100530000DFAC01B41F289318842F3D3032082E0D7
:1005400000F004FA0700DFF8D8030068800508D53A
:1005500000F0FCF9C01B41F289318842F3D303203B
:1005600071E04046C0B2012805D1DAF8000030F051
:100570008050CAF80000606A002863D00C2D48D073
:10058000606A022832D1DFF8B4B30020CBF8000053
:1005900000F0DCF98046DFF874A3DAF8000080018F
:1005A00007D500F0D3F9B0EB08000328F3D30320FC
:1005B00049E0D9F8001031F47D01A06A0143E06AF6
:1005C0000143206B0143C9F800100120CBF8000063
:1005D00000F0BCF90700DAF80000800132D400F026
:1005E000B5F9C01B0328F6D303202CE00020DFF868
:1005F0004C13086000F0AAF90700DFF81003006848
:1006000080011FD500F0A2F9C01B0328F5D30320F9
:1006100019E0606A012801D1012014E0D9F8000036
:10062000060016F48030A16A884209D116F47010D1
:10063000E16A884204D116F44000216B884201D05F
:10064000012000E00020BDE8FE8F2DE9F04104000C
:100650000D00002C01D10120D8E0DFF8E4723868E9
:1006600010F00100A84211D2012D03D1386850F0DA
:100670000400386038684008400028433860386813
:1006800010F00100A84201D00120BFE020788007CF
:1006900007D5DFF87C120A6832F0F002A068024346
:1006A0000A602078C00775D56068022806D1DFF897
:1006B0005C02006880031CD40120A7E06068032866
:1006C00006D1DFF848020068800112D401209DE0C5
:1006D0006068012806D1DFF834020068800708D47A
:1006E000012093E0DFF824020068800501D4012096
:1006F0008CE0DFF81C82D8F8001089088900606857
:100700000143C8F8001000F021F9060060680228D3
:100710000ED1D8F8000010F00C0008283AD000F0F4
:1007200015F9801B41F289318842F2D303206DE034
:10073000606803280ED1D8F8000010F00C000C28D7
:1007400028D000F003F9801B41F289318842F2D3AE
:1007500003205BE0606801280ED1D8F8000010F09B
:100760000C00042816D000F0F1F8801B41F289310A
:100770008842F2D3032049E0D8F8000010F00C0FB3
:1007800008D000F0E3F8801B41F289318842F3D3AE
:1007900003203BE0386810F00100854211D2012DA2
:1007A00003D1386850F004003860386840084000D1
:1007B00028433860386810F00100A84201D00120B9
:1007C00024E02078400706D551490A6832F4E062F7
:1007D000E06802430A602078000707D54C480168AA
:1007E00031F46051226951EAC201016000F010F851
:1007F0004D49474A1268C2F30312895CC840464912
:1008000008604648006800F0A7F8C0B2BDE8F08173
:10081000F0B43F48066816F00C01042904D00829FA
:1008200004D00C2904D01EE03A4828E0454826E0D0
:100830004549C6F38347C95D0A00C6F38151491C87
:100840000B000068C00306D53E4800FB02F0B0FB79
:10085000F3F0040005E02F4800FB02F0B0FBF3F0DA
:10086000040020000BE028480068C0F34230050077
:100870000121681C11FA00F04FF400414843F0BC1C
:10088000704718B4010000232148006810F0F00FF1
:1008900023D128480468E40005D52748006810F4EF
:1008A000C050020011E0046854F0805404600468F1
:1008B00014F080540094009C1F4C246814F4C0541D
:1008C0002200046834F080540460B2F5C05F04D1A3
:1008D000B1F5404F01D101200300012B04D118488C
:1008E000046854F004040460154804686408640053
:1008F0001C430460006810F00100984201D0012000
:1009000000E0002012BC704704380240003802406A
:10091000083802400024F4001000002008000020E5
:100920003438024000004742442200082000474279
:100930008006474224380240007000406000474271
:10094000003C024000366E01642200080148006845
:10095000704700BF7400002038B50400002513491B
:10096000086800281DD04FF47A700968B0FBF1F0D8
:100970000F490968B1FBF0F000F09DF800280DD197
:10098000102C08D2002221005FF0FF3000F07EF82A
:100990000848046007E00120050004E0012005008C
:1009A00001E0012005002800C0B232BD0C0000208B
:1009B000100000200800002010B410F00703DFF83A
:1009C000044122684FF6FF010A40DFF8FC1051EAAB
:1009D00003210A43226010BC70473A480068C0F304
:1009E0000220704710B4020052B2002A05D40A0156
:1009F000364B040064B21A5508E00A01344B040077
:100A000064B214F00F04234403F8042C10BC7047A4
:100A100070B4030013F00704D4F10700052801D3D4
:100A2000042001E0D4F10700251D072D01D2002587
:100A300000E0E51E012616FA00F0401E0140A94024
:100A400016FA05F56D1E2A401143080070BC704768
:100A500010B50400601EB0F1807F01D301200EE0CC
:100A6000601E1C4908600F215FF0FF30FFF7BAFFDE
:100A7000002019490860072018490860002010BDAF
:100A800010B504002000FFF797FF10BD2DE9F041DD
:100A900004000D0016000027FFF79FFF804632007C
:100AA00029004046FFF7B4FF0100200040B2FFF7E5
:100AB00099FFBDE8F08110B504002000FFF7C8FFE2
:100AC00010BD00000CED00E00000FA0500E400E0BD
:100AD00018ED00E014E000E018E000E010E000E0B5
:100AE00010B50400002C01D101203FE0606A00280D
:100AF0000020A06294F85100002805D1002084F85D
:100B00005000200000F0E7FB022084F8510020682C
:100B1000006830F04000216808606168A068014307
:100B2000E06801432069014360690143A06910F452
:100B300000700143E0690143206A0143A06A014358
:100B400020680160A169090C11F00401606A014389
:100B5000206841602068C06930F400602168C86185
:100B600000206065012084F85100002010BD2DE9AF
:100B7000FC4706000D0017001C005FF0000896F807
:100B80005000012801D10220C4E0012086F8500065
:100B9000FFF7DCFE8146BA4696F85100012802D0E4
:100BA00002208046AEE0002D03D0380080B200283D
:100BB00002D101208046A5E0032086F851000020E4
:100BC00070653563B786F7860020B0630020B08774
:100BD0000020F0870020706400203064B068B0F519
:100BE000004F05D13068006850F4804031680860DB
:100BF00030680068400605D43068006850F0400056
:100C000031680860F068B0F5006F30D17068002876
:100C100003D0504680B2012809D1306B008831687A
:100C2000C860306B801C3063F08E401EF086F08E02
:100C300000284DD03068806880070AD5306B008866
:100C40003168C860306B801C3063F08E401EF086C7
:100C5000EDE7FFF77BFEB0EB0900A04202D314F1F1
:100C6000010F01D1002CE2D1032080464AE07068D8
:100C7000002803D0504680B2012809D1306B00789B
:100C800031680873306B401C3063F08E401EF08674
:100C9000F08E00281CD03068806880070AD5306B41
:100CA000007831680873306B401C3063F08E401E52
:100CB000F086EDE7FFF74AFEB0EB0900A04202D351
:100CC00014F1010F01D1002CE2D10320804619E07C
:100CD0004A462100300000F092FA002801D020207E
:100CE0007065B068002808D1002000903068C068A6
:100CF00000903068806800900098706D002801D0E6
:100D000001208046012086F85100002086F850001E
:100D10004046C0B2BDE8F6872DE9F84306000D0055
:100D200017001C005FF000087068B0F5827F0ED1DC
:100D3000B06800280BD1042086F8510000943B00D5
:100D40009BB22A002900300000F09EF89AE096F845
:100D50005000012801D1022094E0012086F85000C3
:100D6000FFF7F4FD814696F85100012802D00220D9
:100D700080467FE0002D03D0380080B2002802D1E9
:100D80000120804676E0042086F85100002070653E
:100D9000B563B787F787002030630020B086002056
:100DA000F0860020306400207064B068B0F5004F19
:100DB00005D13068006830F48040316808603068E0
:100DC0000068400605D43068006850F04000316883
:100DD0000860F06800281FD1F08F00283CD03068F0
:100DE0008068C0070AD53068007BB16B0870B06BB3
:100DF000401CB063F08F401EF087EDE7FFF7A6FDC3
:100E0000B0EB0900A04202D314F1010F01D1002C74
:100E1000E2D1032080462DE0F08F00281CD03068FE
:100E20008068C0070AD53068C068B16B0880B06BB5
:100E3000801CB063F08F401EF087EDE7FFF786FD62
:100E4000B0EB0900A04202D314F1010F01D1002C34
:100E5000E2D1032080460DE04A462100300000F038
:100E600081F9002801D020207065706D002801D024
:100E700001208046012086F85100002086F85000AD
:100E80004046C0B2BDE8F2832DE9FE4F07000D00D9
:100E9000160098460C9C5FF001095FF0000A97F875
:100EA0005000012801D102200AE1012087F85000FA
:100EB000FFF74CFD834697F851008DF800007868E5
:100EC0000290ADF802809DF8000001280DD0029834
:100ED000B0F5827F06D1B868002803D19DF80000E4
:100EE000042802D002208246E2E0002D05D0002E28
:100EF00003D0404680B2002802D101208246D7E0CC
:100F000097F85100042802D0052087F851000020EE
:100F10007865BE63A7F83E80A7F83C803D63A7F8DC
:100F20003680A7F834800020386400207864386860
:100F30000068400605D43868006850F04000396801
:100F40000860F868B0F5006F4CD17868002803D0CD
:100F5000BDF80200012809D1386B00883968C860E3
:100F6000386B801C3863F88E401EF886F88E002897
:100F700003D1F88F002800F08380386880688007EC
:100F800011D5F88E00280ED0B9F1010F0BD1386BB6
:100F900000883968C860386B801C3863F88E401E42
:100FA000F8860020814638688068C0070ED5F88F23
:100FB00000280BD03868C068B96B0880B86B801CFB
:100FC000B863F88F401EF88701208146FFF7BEFC0A
:100FD000B0EB0B00A042C9D314F1010FC6D003201F
:100FE000824665E07868002803D0BDF80200012839
:100FF00009D1386B007839680873386B401C386346
:10100000F88E401EF886F88E002802D1F88F00284E
:1010100036D038688068800711D5F88E00280ED049
:10102000B9F1010F0BD1386B007839680873386B50
:10103000401C3863F88E401EF886002081463868D0
:101040008068C0070ED5F88F00280BD03868C068BC
:10105000B96B0870B86B401CB863F88F401EF887F6
:1010600001208146FFF772FCB0EB0B00A04202D3D7
:1010700014F1010F01D1002CC5D10320824617E0E5
:101080005A462100380000F0BAF8002804D00120A8
:101090008246202078650BE0B868002808D100203F
:1010A00001903868C06801903868806801900198A4
:1010B000012087F85100002087F850005046C0B248
:1010C000BDE8FE8F2DE9F04105000E0090461C00A2
:1010D000069F286880683040B04201D1012000E0BE
:1010E00000204146C9B2884239D014F1010FF0D036
:1010F000FFF72CFCC01BA04201D2002CE9D12868CC
:10110000406830F0E000296848606868B0F5827F88
:101110000DD1A868B0F5004F03D0A868B0F5806F76
:1011200005D12868006830F0400029680860A86A86
:10113000B0F5005F0BD12868006830F400502968D2
:1011400008602868006850F4005029680860012091
:1011500085F85100002085F85000032000E00020B1
:10116000BDE8F0817CB504000D0016006068B0F5A4
:10117000827F0DD1A068B0F5004F03D0A068B0F514
:10118000806F05D12068006830F040002168086059
:101190006068B0F5827F21D1A068B0F5806F0ED075
:1011A00000962B00002280212000FFF78BFF0028F3
:1011B00023D0606D50F02000606503201EE0009693
:1011C0002B00002201212000FFF77CFF002814D013
:1011D000606D50F02000606503200FE000962B004A
:1011E000002201212000FFF76DFF002805D0606D6F
:1011F00050F020006065032000E0002076BD7CB543
:1012000004000D0016006068B0F5827F0ED10096D4
:101210002B00002280212000FFF754FF002818D067
:10122000606D50F020006065032013E094F85100D9
:1012300005280ED100962B00002201212000FFF787
:1012400041FF002805D0606D50F02000606503204C
:1012500000E0002076BD30B4002513E050F8042BE8
:10126000D30744BFA9F101039A18091F042942F8C2
:10127000045BFAD213468C0744BF15809B1CC90738
:1012800048BF1D7050F8041B0029E7D130BC7047DF
:1012900080B52848284901604FF4827141600021DF
:1012A00081600021C16000210161002141614FF492
:1012B000007181610021C161002101620021416250
:1012C000002181620A21C162FFF70AFC002801D0D7
:1012D00000F0E4FB01BD10B586B0040001A81421A4
:1012E00000F0DEFB20681449884221D113480168D0
:1012F00051F480510160006810F480500090009813
:101300000F48016851F001010160006810F0010010
:1013100000900098E02001900220029000200390AD
:10132000032004900520059001A9064800F0BCFBAD
:1013300006B010BD180000200030014020380240E7
:101340001C38024000000240F8B504000D0054F0C3
:1013500080008DF802008DF8035000208DF8000009
:10136000DFF8FC6600221021300000F084FCDFF87A
:10137000F4764FF47A7302220DF102013800FFF780
:10138000F6FB002801D000F089FB0122102130007B
:1013900000F071FC00221021300000F06CFC8DF890
:1013A00002404FF47A7301220DF102013800FFF779
:1013B000DEFB002801D000F071FB4FF47A730122AC
:1013C00069463800FFF7A8FC002801D000F066FB52
:1013D00001221021300000F04EFC9DF80000290091
:1013E000C9B28842B3D1F1BDF8B504000D0054F084
:1013F00080008DF802008DF8035000208DF8000069
:10140000DFF85C6600221021300000F034FCDFF8C9
:1014100054764FF47A7302220DF102013800FFF77F
:10142000A6FB002801D000F039FB0122102130007A
:1014300000F021FC00221021300000F01CFC8DF88F
:1014400002404FF47A7301220DF102013800FFF7D8
:101450008EFB002801D000F021FB4FF47A730122AB
:1014600069463800FFF758FC002801D000F016FB51
:1014700001221021300000F0FEFB9DF80000290041
:10148000C9B2884201D000F009FBF1BD7CB504006F
:101490008DF8014000208DF80000DFF8C4550022CF
:1014A0001021280000F0E7FBDFF8B8654FF47A73ED
:1014B00001220DF101013000FFF759FB002801D096
:1014C00000F0ECFA4FF47A73012269463000FFF71E
:1014D00023FC002801D000F0E1FA012210212800AD
:1014E00000F0C9FB9DF8000076BD7CB504000D003E
:1014F00054F080008DF800008DF80150DFF8606531
:1015000000221021300000F0B6FB4FF47A73022263
:101510006946DFF85005FFF72AFB002801D000F0EC
:10152000BDFA01221021300000F0A5FB73BD10B5FB
:101530001220FFF7ABFF0400600603D514F0200073
:1015400000F054F8200701D500F01FF82100C9B2BF
:101550001220FFF7CAFFDFF810050078002803D03B
:1015600083210120FFF7F0FE10BD80B500210D2082
:10157000FFF73AFF00211020FFF736FF01BD80B5CD
:1015800080210D20FFF730FF01BD18B585B06846FA
:10159000DFF8D814142200F091FBDFF8D4040178AE
:1015A0008DF810100178491C017080210D20FFF783
:1015B0009CFFDFF8AC4400221021200000F05BFB10
:1015C00080208DF800004FF47A7311226946DFF80D
:1015D0009404FFF7CCFA002801D000F05FFA012252
:1015E0001021200000F047FB06B010BD2DE9F04FA0
:1015F00087B004000020ADF8040003A8102100F01B
:101600004FFA1020FFF742FF8DF801009DF80110FE
:101610000D20FFF76AFF1320FFF738FF0500DFF802
:10162000406400221021300000F025FB00208DF8DE
:101630000400DFF830744FF47A73012201A93800F6
:10164000FFF795FA002801D000F028FA2800C0B270
:1016500000280CD04FF47A73102203A93800FFF74A
:101660005BFB002801D000F019FA103DEEE70122E3
:101670001021300000F0FFFA1A20FFF707FF0600E4
:101680001A20FFF703FF8DF800009DF900000421E8
:1016900090FBF1F7380000B2002813D43000C0B23C
:1016A0009D38ADF80200BDF9020010F1630F0FDBA9
:1016B0003000C0B200010F2190FBF1F09D38ADF871
:1016C000020005E03000C0B238189D38ADF80200C5
:1016D0002820FFF7DBFE80462920FFF7D7FE814652
:1016E0002A20FFF7D3FE82464146C9B24846C0B21F
:1016F000000550EA01705146C9B250EA01300013AA
:1017000002900299642041434FF43F7091FBF0FB3B
:101710000BF5C33B1BF1A00B2000C0B2002802D088
:101720001020D44908702000C0B2002806D1D14949
:101730000878002802D00878401E0870CD4800784C
:1017400000280DD1CC480168072202FB01B1082214
:1017500091FBF2F101600068C849081800F003F835
:1017600007B0BDE8F08F2DE9FE430400C44EC54F1D
:1017700038680021E517021B71EB0503DFF80883C9
:101780005FF00009A8FB020108FB031109FB02112D
:10179000BE4A012300F0D6FA3060BD4800FB04F0D9
:1017A000396890FBF1F52F003900C9B22720FFF707
:1017B0001BFE6846B7490A68026068463168090C32
:1017C00041703168090A81703168C170DFF8908218
:1017D00000221021404600F04EFADFF888924FF4C4
:1017E0007A73042269464846FFF7C1F9002801D000
:1017F00000F054F901221021404600F03CFA00228A
:101800001021404600F037FA06208DF800004FF412
:101810007A73012269464846FFF7A9F9002801D0EA
:1018200000F03CF94FF47A73032201A94846FFF710
:1018300073FA002801D000F031F90122102140464E
:1018400000F019FA9DF804003168C1F3074188429D
:101850000CD101A841783268C2F30722914205D128
:101860008078317801F0FF01884201D000F016F94C
:10187000BDE8F7833EB56846002101608021012064
:10188000FFF762FD81210120FFF75EFDFF2112209D
:10189000FFF72BFE86208DF800006846D9214170A5
:1018A000132181703321C1706D4C00221021200062
:1018B00000F0E1F96B4D4FF47A7304226946280079
:1018C000FFF755F9002801D000F0E8F801221021B7
:1018D000200000F0D0F900221021200000F0CBF908
:1018E00006208DF800004FF47A7301226946280023
:1018F000FFF73DF9002801D000F0D0F84FF47A73DB
:10190000032201A92800FFF707FA002801D000F000
:10191000C5F801221021200000F0ADF99DF8040067
:10192000D92806D101A84178132902D1807833281B
:1019300001D000F0B3F800210920FFF755FD2D215B
:101940000B20FFF751FD23210C20FFF7CEFD732163
:101950001D20FFF749FD74211E20FFF745FD0421DE
:101960002620FFF741FD10212220FFF73DFD102129
:101970002320FFF739FD80210E20FFF735FD0021E0
:101980000F20FFF731FD384C2078002802D0FFF7F8
:10199000F6FD01E0FFF7E9FD2078002804D04021A2
:1019A0004020FFF721FD03E000214020FFF71CFD50
:1019B0002078002804D083210120FFF7C5FC03E034
:1019C00085210120FFF7C0FC00203EBD80B500F05E
:1019D000F3FA00F00DF800F001FBFFF759FCFFF7F8
:1019E00049FFFFF7A4FD4FF47A7000F01FFBF8E702
:1019F00080B592B005A8342100F052F86846142151
:101A000000F04EF82448016831F4C05151F40061EF
:101A100001601020059001200B9000200C904FF4E5
:101A200020400D9000200E9005A8FEF77BFB0028BB
:101A300001D000F033F80F2000900020019000202A
:101A40000290002003900020049000216846FEF7D9
:101A5000FCFD002801D000F021F813B000BD00000B
:101A6000000002401800002014000020302200086E
:101A70007800002015000020040000206079FEFF9F
:101A8000700000200000002000E1F505E941CC6B6A
:101A9000F07E0E007C22000800700040FEE700008F
:101AA000002200F0D7BA0000F8B502000B000024B5
:101AB000002000251968E140002900F0DB800126A4
:101AC0001F6816FA04F10F403800002800F0D0809B
:101AD0005968022902D0596812291ED12100C9086B
:101AE00002EB81010F6A5FF00F0C14F00701C9B21D
:101AF00089001CFA01FC37EA0C07D3F810C014F077
:101B00000701C9B289001CFA01FC5CEA07073D0025
:101B10002100C90802EB81010D6217685FF0030C18
:101B20002100C9B249001CFA01F18F4393F804E087
:101B30001EF0030E2100C9B249001EFA01FE5EEA42
:101B4000070717605968012908D05968022905D08C
:101B50005968112902D0596812291AD195682100B3
:101B6000C9B249001CFA01F18D43D3F80CE0210001
:101B7000C9B249001EFA01FE5EEA0505956051688A
:101B8000A640B1435E68C6F30016A64031430F007D
:101B90005760D5682100C9B249001CFA01FC35EA3A
:101BA0000C059E682100C9B249008E403543D560BE
:101BB0005968C9005CD536490E6856F001060E60BA
:101BC000096811F0010100910099324F2100890844
:101BD00057F821605FF00F0C14F00301C9B28900BF
:101BE0001CFA01FC36EA0C062B498A4201D1002579
:101BF00014E02A498A4201D101250FE028498A428E
:101C000001D102250AE027498A4201D1032505E0D6
:101C100025498A4201D1042500E0052514F003017D
:101C2000C9B289008D402E432100890847F8216000
:101C30001E4D296881435F68FF0300D50143296079
:101C40001B4E356885435F68BF0300D5054335608B
:101C5000184E316881435F68FF0200D5014331604F
:101C6000154E356885435F68BF0200D50543356072
:101C7000641C1FE7F1BD1300DBB2002B03D00B0087
:101C80009BB2836103E00B009BB21B04836170472E
:101C900020380240080001400000024000040240D9
:101CA00000080240000C0240001002400004014005
:101CB00004040140080401400C040140103A07D319
:101CC00030B4B1E83810103AA0E83810F9D230BC7E
:101CD000530724BFB1E80810A0E8081044BF51F82A
:101CE000043B40F8043BD20724BF31F8022B20F814
:101CF000022B44BF0B7803707047121F17D35B0091
:101D000009D151F8043B20F8023B1B0C121F20F8AC
:101D1000023BF6D20BE051F8043B00F8013B1B0AF2
:101D200020F8023B1B0C121F00F8013BF3D238BF16
:101D3000121D521E24BF11F8013B00F8013BF8D8D8
:101D40007047000013F0004C03D55B42524263F130
:101D500000039CEA210C00F0178010B5644603D301
:101D60004942404261F1000100F00EF8640004D3E2
:101D70004942404261F10001244203D55B42524294
:101D800063F1000310BD0000BBBBE1B1B2F5803FC1
:101D900080F07E80022A1ED98C46B1FBF2F102FB54
:101DA00011C31B0443EA1043B3FBF2FC02FB1C33D8
:101DB00080B240EA0343B3FBF2F002FB103240EA88
:101DC0000C4000237047022A05D98446B0FBF2F08C
:101DD00002FB10C270474AB105D100F00102490868
:101DE0005FEA3000704700220023704700F04CB9D2
:101DF0000B000200002100207047904271EB030CA1
:101E0000F6D3B3F5803F2FD2F0B5B3FA83F7B1FA2A
:101E100081F4A7F10F0E3D1B5340CEF1200602FACC
:101E20000EF2F3415340B5F10F0746D80F3C2C4456
:101E30004140C4F12006A040F1414140B1FBF3F61E
:101E400003FB1611A2FB0645001BA94102D2761E18
:101E50008018594180EA010221FA0EF362FA0EF26B
:101E600000215A403046F0BD30B4B1FBF3FC03FB17
:101E70001C11A2FB0C45001BA94103D2ACF1010CC3
:101E80008018594130BC02460B466046002170471D
:101E9000B2F1807F65D3F0B5B2FA82F7B1FA81F47E
:101EA000C7F10F063D1B22FA06F307F1110EF241AE
:101EB00020355A40B5F10F07B8D94140C4F120068A
:101EC000A040F1414140B1FBF3FC03FB1C11A2FB1C
:101ED0000C45001BA94103D2BCF1010C80185941EB
:101EE0000F2F12D30F3FC90341EA5041B1FBF3F664
:101EF00003FB1611A2FB0645D4EBC030A94102D268
:101F0000761E8018594146EACC3C07B34140C7F1E0
:101F10002006B840F1414140B1FBF3F603FB161136
:101F2000A2FB0645001BA94102D2761E801859412A
:101F300080EA010221FA0EF3C7F1200462FA0EF2E0
:101F40000CFA07F05A402CFA04F13043F0BD80EA55
:101F5000010221FA0EF3002162FA0EF260465A40A5
:101F6000F0BD8C46B1FBF2F102FB11C31B0243EA48
:101F70001063B3FBF2FC02FB1C331B024CEA002093
:101F800043EA1063B3FBF2FC02FB1C331B024CEA76
:101F9000002043EA1063B3FBF2FC02FB1C331B027C
:101FA0004CEA002043EA1063B3FBF2FC02FB1C3254
:101FB0004CEA00200023704710B500240320FEF7F0
:101FC0005FFD0020FEF7C8FC002802D001200400BD
:101FD00001E000F05BF82000C0B210BD10B586B083
:101FE00001A81421FFF75CFD0E48016851F00101C2
:101FF0000160006810F00100009000980A4C002277
:1020000010212000FFF737FE1020019001200290E0
:10201000002003900020049001A92000FFF744FD58
:1020200006B010BD1C3802400000024070B504002C
:10203000FEF78CFC0500260016F1010F02D00448C3
:1020400000688619FEF782FC401BB042FAD370BDCF
:102050000C00002000B500BF1300964694461039CE
:1020600028BFA0E80C50FAD85FEA417C28BF0CC01A
:1020700048BF40F8042BC90728BF20F8022B48BFEF
:1020800000F8012B00BD00007047000081B00F4830
:10209000016851F000410160016811F000410091B8
:1020A00000990B490A6852F001020A60096811F0B0
:1020B000010100910099016851F0805101600068B0
:1020C00010F080500090009801B070472438024012
:1020D000203802400E49086850F4807008600D4AAC
:1020E00013680D48034013600B680C4803400B60F5
:1020F000086830F480200860106830F47D001060BB
:102100000020074908605FF00060064908607047DA
:1021100000380240083802400CC0FF88FEFFFEEE87
:102120000C38024008ED00E030B450F8041B79B1DF
:102130000268436802440830DC0744BFA9F1010487
:10214000E31852F8045B43F8045B091FF9D1ECE78C
:1021500030BC704710B5074979441831064C7C44AF
:10216000163404E00A68081D114488470146A1425C
:10217000F8D110BD0800000028000000DBF0FFFFD0
:102180006400000018000020000000009DFFFFFF19
:102190001800000084000000000000200000000083
:1021A00000F00DF8002801D0FFF7D4FFAFF3008056
:1021B0000020AFF30080FFF709FC00F002F80120D7
:1021C000704700F001B800000746384600F002F8FA
:1021D000FBE7000080B5AFF30080024A1100182031
:1021E000ABBEFBE72600020003490A68034800680B
:1021F00082180A60704700BF740000200C000020A5
:102200007047FEE7FEE7FEE7FEE77047704770475E
:1022100080B5FFF7E9FF01BD4025C133A08601006D
:10222000100000000100000068FF1F000110000006
:10223000000C22384E0000000000000000000000EA
:102240000000000000000000000000000102030484
:10225000060708090148804701480047D5200008C3
:1022600071220008030406080C101820300000003A
:10227000AFF30080AFF30080FFF792FF860000000D
:10228000FFF7FEBFFFF7FEBFFFF7FEBFFFF7FEBF82
:10229000FFF7FEBFFFF7FEBFFFF7FEBFFFF7FEBF72
:1022A000FFF7FEBFFFF7FEBFFFF7FEBFFFF7FEBF62
:1022B000FFF7FEBFFFF7FEBFFFF7FEBFFFF7FEBF52
:1022C000FFF7FEBFFFF7FEBFFFF7FEBFFFF7FEBF42
:1022D000FFF7FEBFFFF7FEBFFFF7FEBFFFF7FEBF32
:1022E000FFF7FEBFFFF7FEBFFFF7FEBFFFF7FEBF22
:1022F000FFF7FEBFFFF7FEBFFFF7FEBFFFF7FEBF12
:10230000FFF7FEBFFFF7FEBFFFF7FEBFFFF7FEBF01
:10231000FFF7FEBFFFF7FEBFFFF7FEBFFFF7FEBFF1
:10232000FFF7FEBFFFF7FEBFFFF7FEBFFFF7FEBFE1
:10233000FFF7FEBFFFF7FEBFFFF7FEBFFFF7FEBFD1
:10234000FFF7FEBFFFF7FEBFFFF7FEBFFFF7FEBFC1
:04235000FFF7FEBFD6
:04000005080022715C
:00000001FF
